:100000000C942A000C9447000C9447000C94470071
:100010000C9447000C9447000C9447000C94470044
:100020000C9447000C9447000C9447000C94470034
:100030000C9447000C9447000C9447000C94470024
:100040000C9447000C9447000C9447000C94470014
:100050000C94470011241FBECFE5D8E0DEBFCDBF12
:1000600010E0A0E6B0E0E8EEFBE002C005900D92E3
:10007000A437B107D9F720E0A4E7B0E001C01D9292
:10008000A339B207E1F70E9454000C94F2050C94D6
:100090000000982F92959F70990F292F220F220F01
:1000A000920F8F70890F08953F924F925F926F92D7
:1000B0007F928F929F92AF92BF92CF92DF92EF92F8
:1000C000FF920F931F93CF93DF931F92CDB7DEB7AD
:1000D00011BA60EDCE0101960E948F010E94B80214
:1000E00060E080E00E94EE020E94EA02CE010196EA
:1000F0000E94920189E69EE6A4E7B0E08093820028
:1001000090938300A0938400B093850082E890E0F0
:100110000E9404030E94EA0260E0CE0101960E9460
:1001200096018111D0C00F2EFCE7AF2EF0E0BF2E5C
:10013000F02D0F2EF7E68F2EF0E09F2EF02D0F2ED4
:10014000F1E13F2EF02D0F2EF2E8EF2EF0E0FF2E22
:10015000F02D0F2EFBE66F2EF0E07F2EF02D0F2EF0
:10016000FFE64F2EF0E05F2EF02D60E0CE0101960D
:100170000E94BA0120E047E064E770E0CE010196FA
:100180000E94FC01CE0101960E94DB0104E710E011
:100190000F2EFBE7CF2EF0E0DF2EF02DF80181913E
:1001A0008F010E944900F60181936F010A151B051A
:1001B000A9F70E94EA02EDE7F0E080811F928F9399
:1001C0009F928F921F923F92FF92EF920E94130391
:1001D000C7010E94040363E080E00E94F702ECE79D
:1001E000F0E080811F928F939F928F921F923F9297
:1001F000FF92EF920E941303C7010E94040366E07E
:1002000080E00E94F702EBE7F0E080811F928F937D
:100210007F926F921F923F92FF92EF920E94130380
:10022000C7010E94040360E081E00E94F702EFE74B
:10023000F0E080811F928F935F924F921F923F92C6
:10024000FF92EF920E9413030FB6F894DEBF0FBE29
:10025000CDBFC7010E94040363E081E00E94F70262
:10026000E0E8F0E080811F928F935F924F921F929F
:100270003F92FF92EF920E941303C7010E94040372
:1002800066E081E00E94F702E1E8F0E080811F92E1
:100290008F937F926F921F923F92FF92EF920E94F4
:1002A0001303C7010E940403FFE32DE083E0F15034
:1002B00020408040E1F700C000000FB6F894DEBF98
:1002C0000FBECDBF52CFCE0101960E94DB0187E069
:1002D000E0E6F0E0A2E8B0E001900D928A95E1F747
:1002E00082E890E00E9404030E94EA02CE01019697
:1002F0000E943B0280E090E00F90DF91CF911F9130
:100300000F91FF90EF90DF90CF90BF90AF909F90B4
:100310008F907F906F905F904F903F900895FC0179
:100320006083089511B88CE080B9089524EA26BF4F
:1003300006B607FEFDCF21B1287F283011F020310D
:1003400091F4FC018081680F63B984E886BF06B62A
:1003500007FEFDCF91B1987F983139F081E090345C
:1003600029F480E0089581E0089580E008950E94D6
:1003700096010895FC0194EA24E834E996BF06B694
:1003800007FEFDCF81B1887F883011F08031B1F751
:100390008081860F83B926BF06B607FEFDCF81B1E7
:1003A000887F803211F0883529F436BF06B604FC08
:1003B000FDCFE4CF089584E986BF06B604FCFDCFE7
:1003C000089563B984E886BF06B607FEFDCF91B1F4
:1003D000987F81E0983209F480E0089584EC86BF2C
:1003E00006B607FEFDCF83B1089584E886BF06B642
:1003F00007FEFDCF83B10895AF92BF92CF92DF92F7
:10040000EF92FF920F931F93CF93DF938C016B01B9
:10041000A42E622F0E94E10161E0C8010E94B70191
:10042000EA2CF12C81E0E81AF1081E141F0474F480
:10043000B12CE601CB0DD11DC8010E94EE018883CD
:10044000B3942B2D30E02E153F059CF38A2D90E0C0
:100450000197E601C80FD91FC8010E94F5018883E2
:10046000DF91CF911F910F91FF90EF90DF90CF9090
:10047000BF90AF90089508958150F0F7089582E0FD
:100480000E943C02D99A81E00E943C02D9980895CA
:1004900081509040E8F70895CF938AB38E608ABB6D
:1004A0008AB38F708ABB8BB3846F8BBBDB9882E07F
:1004B0000E943C02D99A81E00E943C02C9B3D998BB
:1004C00082E00E943C02D99A81E00E943C0289B3FA
:1004D000C07F82958F70D9988C2BCF9108950E9400
:1004E0004C028823E4F30895CF93C82F0E946F0233
:1004F0008AB38E6F8ABB8BB381708BBB8BB39C2FFF
:10050000907F892B8BBB0E943F028BB381708BBB8A
:100510002BB330E1C39FC0011124822B8BBB0E94FF
:100520003F02CF910895CF93C82F0E946F028AB3E4
:100530008E6F8ABB8BB381708BBB8BB388609C2F13
:10054000907F892B8BBB0E943F028BB381708BBB4A
:100550002BB3286030E1C39FC0011124822B8BBBD9
:100560000E943F02CF91089581E00E947402089595
:100570008AB38E6F8ABB8EEF95E30E9448028BB3DD
:1005800081708BBB8BB380638BBB0E943F0282EC7C
:100590009EE00E9448020E943F028CE590E00E948B
:1005A00048020E943F028CE590E00E944802DC98DD
:1005B0000E943F028CE590E00E94480288E20E947F
:1005C000740286E00E9474020E94B4028FE00E94CE
:1005D0007402089582E00E9474020895882311F045
:1005E0008EE001C08CE0860F0E9474020895823074
:1005F00050F4603140F490E4899F600D1124862FFF
:1006000080580E9474020895CF93DF93EC01888193
:10061000882331F021960E94930289918111FBCFAA
:10062000DF91CF910895AEE0B0E0E9E1F3E00C9402
:10063000C9050D891E898F89988D26E02C831A8320
:10064000098397FF02C080E090E801979E838D8325
:10065000AE01455E5F4F698D7A8DCE0101960E9495
:1006600043034D815E8157FD0AC02F8138854217B3
:1006700053070CF49A01F801E20FF31F10822E9633
:10068000E4E00C94E505ACE0B0E0E9E4F3E00C94C0
:10069000BB057C016B018A01FC01178216828381F4
:1006A00081FFBDC1CE0101964C01F7019381F60196
:1006B00093FD859193FF81916F01882309F4ABC16C
:1006C000853239F493FD859193FF81916F018532D5
:1006D00029F4B70190E00E942B05E7CF512C312C73
:1006E00020E02032A0F48B3269F030F4803259F0EF
:1006F000833269F420612CC08D3239F0803339F4B3
:10070000216026C02260246023C0286021C027FD0C
:1007100027C030ED380F3A3078F426FF06C0FAE0F3
:100720005F9E300D1124532E13C08AE0389E300D89
:100730001124332E20620CC08E3221F426FD6BC1B1
:10074000206406C08C3611F4206802C0883641F45B
:10075000F60193FD859193FF81916F018111C1CFC6
:10076000982F9F7D9554933028F40C5F1F4FFFE323
:10077000F9830DC0833631F0833771F0833509F08A
:100780005BC022C0F801808189830E5F1F4F442423
:100790004394512C540115C03801F2E06F0E711CC6
:1007A000F801A080B18026FF03C0652D70E002C073
:1007B0006FEF7FEFC5012C870E9420052C0183017C
:1007C0002C852F77222E17C03801F2E06F0E711C96
:1007D000F801A080B18026FF03C0652D70E002C043
:1007E0006FEF7FEFC5012C870E9415052C012C852A
:1007F0002068222E830123FC1BC0832D90E0481625
:100800005906B0F4B70180E290E00E942B053A94BB
:10081000F4CFF50127FC859127FE81915F01B70197
:1008200090E00E942B0531103A94F1E04F1A5108E4
:100830004114510471F7E5C0843611F0893639F559
:10084000F80127FF07C060817181828193810C5F6D
:100850001F4F08C060817181882777FD8095982F90
:100860000E5F1F4F2F76B22E97FF09C0909580958F
:10087000709561957F4F8F4F9F4F2068B22E2AE071
:1008800030E0A4010E945D05A82EA81844C0853759
:1008900029F42F7EB22E2AE030E025C0F22FF97F16
:1008A000BF2E8F36C1F018F4883579F0B4C0803788
:1008B00019F0883721F0AFC02F2F2061B22EB4FE7F
:1008C0000DC08B2D8460B82E09C024FF0AC09F2F55
:1008D0009660B92E06C028E030E005C020E130E087
:1008E00002C020E132E0F801B7FE07C060817181EB
:1008F000828193810C5F1F4F06C06081718180E00F
:1009000090E00E5F1F4FA4010E945D05A82EA8185D
:10091000FB2DFF77BF2EB6FE0BC02B2D2E7FA5140F
:1009200050F4B4FE0AC0B2FC08C02B2D2E7E05C0C8
:100930007A2C2B2D03C07A2C01C0752C24FF0DC0FE
:10094000FE01EA0DF11D8081803311F4297E09C07A
:1009500022FF06C07394739404C0822F867809F036
:10096000739423FD13C020FF06C05A2C731418F48F
:10097000530C5718732C731468F4B70180E290E09D
:100980002C870E942B0573942C85F5CF731410F4DB
:10099000371801C0312C24FF12C0B70180E390E06A
:1009A0002C870E942B052C8522FF17C021FF03C036
:1009B00088E590E002C088E790E0B7010CC0822F84
:1009C000867859F021FD02C080E201C08BE227FD4C
:1009D0008DE2B70190E00E942B05A51438F4B70111
:1009E00080E390E00E942B055A94F7CFAA94F4017B
:1009F000EA0DF11D8081B70190E00E942B05A11046
:100A0000F5CF332009F451CEB70180E290E00E9487
:100A10002B053A94F6CFF7018681978102C08FEFBC
:100A20009FEF2C96E2E10C94D705FC0105906150F4
:100A300070400110D8F7809590958E0F9F1F0895F4
:100A4000FC016150704001900110D8F7809590959D
:100A50008E0F9F1F08950F931F93CF93DF93182F2F
:100A6000092FEB018B8181FD03C08FEF9FEF20C029
:100A700082FF10C04E815F812C813D814217530758
:100A80007CF4E881F9819F012F5F3F4F39832883F0
:100A9000108306C0E885F985812F0995892B29F7F0
:100AA0002E813F812F5F3F4F3F832E83812F902FD9
:100AB000DF91CF911F910F910895FA01AA27283055
:100AC00051F1203181F1E8946F936E7F6E5F7F4F1B
:100AD0008F4F9F4FAF4FB1E03ED0B4E03CD0670F97
:100AE000781F891F9A1FA11D680F791F8A1F911DEA
:100AF000A11D6A0F711D811D911DA11D20D009F43A
:100B000068943F912AE0269F11243019305D31937B
:100B1000DEF6CF010895462F4770405D4193B3E064
:100B20000FD0C9F7F6CF462F4F70405D4A3318F00B
:100B3000495D31FD4052419302D0A9F7EACFB4E0BC
:100B4000A6959795879577956795BA95C9F7009774
:100B50006105710508959B01AC010A2E0694579515
:100B6000479537952795BA95C9F7620F731F841F6C
:100B7000951FA01D08952F923F924F925F926F9202
:100B80007F928F929F92AF92BF92CF92DF92EF921D
:100B9000FF920F931F93CF93DF93CDB7DEB7CA1B9E
:100BA000DB0B0FB6F894DEBF0FBECDBF09942A88C9
:100BB000398848885F846E847D848C849B84AA8471
:100BC000B984C884DF80EE80FD800C811B81AA81FE
:100BD000B981CE0FD11D0FB6F894DEBF0FBECDBFC9
:080BE000ED010895F894FFCF28
:100BE8004661696C65640025643A00256420002527
:040BF800642D000068
:00000001FF
