S00B00004932432E737265635B
S11300000C942C000C9454000C9454000C94540044
S11300100C9454000C9454000C9454000C9454000C
S11300200C9454000C9454000C9454000C94CD0083
S11300300C9454000C9454000C9454000C945400EC
S11300400C9454000C9454000C9454000C945400DC
S11300500C9454008C01A70111241FBECFE5D8E0F5
S1130060DEBFCDBF10E0A0E6B0E0E4E4FCE002C0F7
S113007005900D92A637B107D9F720E0A6E7B0E0C6
S113008001C01D92A53AB207E1F710E0C6E5D0E041
S113009004C02297FE010E943203C435D107C9F778
S11300A00E9448010C9415060C94000081E083BF63
S11300B012BE89BF0895982F92959F70990F292F8A
S11300C0220F220F920F8F70890F0895FF920F93C2
S11300D01F93CF93DF930E940703809187001F92A1
S11300E08F93809188001F928F93809189001F9233
S11300F08F9380918A001F928F9380918B001F921F
S11301008F9380918C001F928F9300E610E01F93D1
S11301100F931F920F2EF1E1FF2EF02DFF92C4E9F1
S1130120D0E0DF93CF930E943603CE010E942103D7
S113013060E081E00E941403809192001F928F93EB
S1130140809193001F928F93809190001F928F93C0
S1130150809191001F928F9380918E001F928F93B4
S113016080918F001F928F931F930F931F92FF9282
S1130170DF93CF930E9436038DB79EB784960FB654
S1130180F8949EBF0FBE8DBFCE010E942103DF9164
S1130190CF911F910F91FF9008951F920F920FB668
S11301A00F921124DF92EF92FF920F931F932F93DC
S11301B03F934F935F936F937F938F939F93AF93EB
S11301C0BF93CF93DF93EF93FF93809176008F30AB
S11301D009F042C060E08FE790E00E94D70120E080
S11301E047E060E870E08FE790E00E9419028FE733
S11301F090E00E94F801D0908300EE24E39410E094
S113020000E002C01F5FE3941330C9F0C02FD0E0B8
S1130210E12FF0E0E058FF4FF0808F2D8F700E94A7
S11302205B00C957DF4F88838F2D82958F700E94A2
S11302305B0089830E5F86E08E1520F70AC08D2D42
S11302400E945B00E02FF0E0E957FF4F80830F5FCF
S1130250D9CF1092760003C08F5F8093760012BED0
S1130260FF91EF91DF91CF91BF91AF919F918F91CA
S11302707F916F915F914F913F912F911F910F91BA
S1130280FF90EF90DF900F900FBE0F901F90189586
S113029011BA0E94D50260E080E00E940B030E9424
S11302A0070389E69EE6A4E7B0E080939400909368
S11302B09500A0939600B093970084E990E00E9483
S11302C021030E9407038FE790E00E94AF0160E0E2
S11302D08FE790E00E94B301811108C00E9456008C
S11302E07894F8940E9466007894FBCF8FE790E0AE
S11302F00E94F80187E0EFE6F0E0A4E9B0E00190A5
S11303000D928A95E1F784E990E00E9421030E940E
S1130310070380E090E0089560ED8FE790E00E948D
S1130320AC0180E38093780081E48093790087E1D5
S113033080937A0085E080937B0086E080937C0044
S113034082E080937D0085E180937E0008958FE7AD
S113035090E00E9458020895FC016083089511B84A
S11303608CE080B9089524EA26BF06B607FEFDCFC7
S113037021B1287F283011F0203191F4FC018081D3
S1130380680F63B984E886BF06B607FEFDCF91B156
S1130390987F983139F081E0903429F480E0089511
S11303A081E0089580E008950E94B3010895FC015E
S11303B094EA24E834E996BF06B607FEFDCF81B17E
S11303C0887F883011F08031B1F78081860F83B93E
S11303D026BF06B607FEFDCF81B1887F803211F0BB
S11303E0883529F436BF06B604FCFDCFE4CF089562
S11303F084E986BF06B604FCFDCF089563B984E89A
S113040086BF06B607FEFDCF91B1987F81E0983292
S113041009F480E0089584EC86BF06B607FEFDCF9C
S113042083B1089584E886BF06B607FEFDCF83B185
S11304300895AF92BF92CF92DF92EF92FF920F9303
S11304401F93CF93DF938C016B01A42E622F0E9424
S1130450FE0161E0C8010E94D401EA2CF12C81E084
S1130460E81AF1081E141F0474F4B12CE601CB0D34
S1130470D11DC8010E940B028883B3942B2D30E058
S11304802E153F059CF38A2D90E00197E601C80FD5
S1130490D91FC8010E9412028883DF91CF911F9156
S11304A00F91FF90EF90DF90CF90BF90AF900895A1
S11304B008958150F0F7089582E00E945902D99A74
S11304C081E00E945902D998089581509040E8F73C
S11304D00895CF938AB38E608ABB8AB38F708ABB28
S11304E08BB3846F8BBBDB9882E00E945902D99A4C
S11304F081E00E945902C9B3D99882E00E9459024E
S1130500D99A81E00E94590289B3C07F82958F7085
S1130510D9988C2BCF9108950E9469028823E4F323
S11305200895CF93C82F0E948C028AB38E6F8ABB22
S11305308BB381708BBB8BB39C2F907F892B8BBB30
S11305400E945C028BB381708BBB2BB330E1C39FE1
S1130550C0011124822B8BBB0E945C02CF910895B1
S1130560CF93C82F0E948C028AB38E6F8ABB8BB341
S113057081708BBB8BB388609C2F907F892B8BBB46
S11305800E945C028BB381708BBB2BB3286030E17B
S1130590C39FC0011124822B8BBB0E945C02CF91AC
S11305A0089581E00E94910208958AB38E6F8ABBF8
S11305B08EEF95E30E9465028BB381708BBB8BB386
S11305C080638BBB0E945C0282EC9EE00E94650209
S11305D00E945C028CE590E00E9465020E945C022D
S11305E08CE590E00E946502DC980E945C028CE538
S11305F090E00E94650288E20E94910286E00E94D7
S113060091020E94D1028FE00E949102089582E03B
S11306100E9491020895882311F08EE001C08CE0BD
S1130620860F0E9491020895823050F4603140F4A4
S113063090E4899F600D1124862F80580E949102B6
S11306400895CF93DF93EC018881882331F02196BC
S11306500E94B00289918111FBCFDF91CF9108955F
S1130660EE0FFF1F0590F491E02D0994AEE0B0E089
S1130670ECE3F3E00C94EC050D891E898F89988DC9
S113068026E02C831A83098397FF02C080E090E858
S113069001979E838D83AE01455E5F4F698D7A8D90
S11306A0CE0101960E9466034D815E8157FD0AC00A
S11306B02F813885421753070CF49A01F801E20F91
S11306C0F31F10822E96E4E00C940806ACE0B0E030
S11306D0ECE6F3E00C94DE057C016B018A01FC017D
S11306E017821682838181FFBDC1CE0101964C0120
S11306F0F7019381F60193FD859193FF81916F0139
S1130700882309F4ABC1853239F493FD859193FFB5
S113071081916F01853229F4B70190E00E944E0562
S1130720E7CF512C312C20E02032A0F48B3269F039
S113073030F4803259F0833269F420612CC08D3258
S113074039F0803339F4216026C02260246023C04C
S1130750286021C027FD27C030ED380F3A3078F4E7
S113076026FF06C0FAE05F9E300D1124532E13C0FD
S11307708AE0389E300D1124332E20620CC08E3254
S113078021F426FD6BC1206406C08C3611F4206868
S113079002C0883641F4F60193FD859193FF81915F
S11307A06F018111C1CF982F9F7D9554933028F408
S11307B00C5F1F4FFFE3F9830DC0833631F083379D
S11307C071F0833509F05BC022C0F8018081898310
S11307D00E5F1F4F44244394512C540115C038011B
S11307E0F2E06F0E711CF801A080B18026FF03C0F7
S11307F0652D70E002C06FEF7FEFC5012C870E946A
S113080043052C0183012C852F77222E17C0380134
S1130810F2E06F0E711CF801A080B18026FF03C0C6
S1130820652D70E002C06FEF7FEFC5012C870E9439
S113083038052C012C852068222E830123FC1BC043
S1130840832D90E048165906B0F4B70180E290E099
S11308500E944E053A94F4CFF50127FC859127FEBA
S113086081915F01B70190E00E944E0531103A94E6
S1130870F1E04F1A51084114510471F7E5C0843670
S113088011F0893639F5F80127FF07C060817181BD
S1130890828193810C5F1F4F08C06081718188271A
S11308A077FD8095982F0E5F1F4F2F76B22E97FFFE
S11308B009C090958095709561957F4F8F4F9F4F9C
S11308C02068B22E2AE030E0A4010E948005A82E00
S11308D0A81844C0853729F42F7EB22E2AE030E0D0
S11308E025C0F22FF97FBF2E8F36C1F018F488355A
S11308F079F0B4C0803719F0883721F0AFC02F2FBA
S11309002061B22EB4FE0DC08B2D8460B82E09C0B8
S113091024FF0AC09F2F9660B92E06C028E030E05D
S113092005C020E130E002C020E132E0F801B7FE6A
S113093007C060817181828193810C5F1F4F06C063
S11309406081718180E090E00E5F1F4FA4010E94DE
S11309508005A82EA818FB2DFF77BF2EB6FE0BC06E
S11309602B2D2E7FA51450F4B4FE0AC0B2FC08C08F
S11309702B2D2E7E05C07A2C2B2D03C07A2C01C082
S1130980752C24FF0DC0FE01EA0DF11D808180331A
S113099011F4297E09C022FF06C07394739404C025
S11309A0822F867809F0739423FD13C020FF06C0BC
S11309B05A2C731418F4530C5718732C731468F4CA
S11309C0B70180E290E02C870E944E0573942C8539
S11309D0F5CF731410F4371801C0312C24FF12C062
S11309E0B70180E390E02C870E944E052C8522FFFE
S11309F017C021FF03C088E590E002C088E790E0BB
S1130A00B7010CC0822F867859F021FD02C080E224
S1130A1001C08BE227FD8DE2B70190E00E944E05F4
S1130A20A51438F4B70180E390E00E944E055A946F
S1130A30F7CFAA94F401EA0DF11D8081B70190E08B
S1130A400E944E05A110F5CF332009F451CEB70111
S1130A5080E290E00E944E053A94F6CFF701868139
S1130A60978102C08FEF9FEF2C96E2E10C94FA0578
S1130A70FC010590615070400110D8F78095909565
S1130A808E0F9F1F0895FC0161507040019001106A
S1130A90D8F7809590958E0F9F1F08950F931F93FD
S1130AA0CF93DF93182F092FEB018B8181FD03C0B6
S1130AB08FEF9FEF20C082FF10C04E815F812C8199
S1130AC03D81421753077CF4E881F9819F012F5F30
S1130AD03F4F39832883108306C0E885F985812F29
S1130AE00995892B29F72E813F812F5F3F4F3F8343
S1130AF02E83812F902FDF91CF911F910F91089515
S1130B00FA01AA27283051F1203181F1E8946F933A
S1130B106E7F6E5F7F4F8F4F9F4FAF4FB1E03ED0E0
S1130B20B4E03CD0670F781F891F9A1FA11D680F7E
S1130B30791F8A1F911DA11D6A0F711D811D911DB1
S1130B40A11D20D009F468943F912AE0269F112426
S1130B503019305D3193DEF6CF010895462F47708A
S1130B60405D4193B3E00FD0C9F7F6CF462F4F70E5
S1130B70405D4A3318F0495D31FD4052419302D043
S1130B80A9F7EACFB4E0A6959795879577956795E9
S1130B90BA95C9F700976105710508959B01AC01E9
S1130BA00A2E06945795479537952795BA95C9F710
S1130BB0620F731F841F951FA01D08952F923F92EB
S1130BC04F925F926F927F928F929F92AF92BF9259
S1130BD0CF92DF92EF92FF920F931F93CF93DF9305
S1130BE0CDB7DEB7CA1BDB0B0FB6F894DEBF0FBE62
S1130BF0CDBF09942A88398848885F846E847D84AF
S1130C008C849B84AA84B984C884DF80EE80FD80B0
S1130C100C811B81AA81B981CE0FD11D0FB6F89426
S1130C20DEBF0FBECDBFED01089510E0C6E5D0E0F4
S1130C3004C0FE010E9432032296C835D107C9F7C9
S1070C40F894FFCF52
S1130C44256425643A256425643A256425640046AC
S1090C5461696C65640097
S9030000FC
