:100000000C942C000C9454000C9454000C94540048
:100010000C9454000C9454000C9454000C94540010
:100020000C9454000C9454000C9454000C9405014E
:100030000C9454000C9454000C9454000C945400F0
:100040000C9454000C9454000C9454000C945400E0
:100050000C945400A601AC0111241FBECFE5D8E0DA
:10006000DEBFCDBF10E0A0E6B0E0EEE4FCE002C0F1
:1000700005900D92A437B107D9F720E0A4E7B0E0CE
:1000800001C01D92A539B207E1F710E0C6E5D0E046
:1000900004C02297FE010E943703C435D107C9F777
:1000A0000E9462010C941A060C94000081E083BF48
:1000B00012BE89BF0895982F92959F70990F292F8E
:1000C000220F220F920F8F70890F0895DF92EF9207
:1000D000FF920F931F93CF93DF930E940C038091A5
:1000E0007F001F928F9300E610E01F930F931F92E3
:1000F0000F2EF1E1DF2EF02DDF92C4E8D0E0DF9388
:10010000CF930E943B03CE010E94260363E080E070
:100110000E94190380917E001F928F931F930F936B
:100120001F92DF92DF93CF930E943B03CE010E9488
:10013000260366E080E00E94190380917D001F92F3
:100140008F9304E610E01F930F931F92DF92DF93CB
:10015000CF930E943B03CE010E94260360E081E022
:100160000E941903809181001F928F930F2EF8E651
:10017000EF2EF0E0FF2EF02DFF92EF921F92DF9214
:10018000DF93CF930E943B038DB79EB780960FB647
:10019000F8949EBF0FBE8DBFCE010E94260363E080
:1001A00081E00E941903809182001F928F93FF9239
:1001B000EF921F92DF92DF93CF930E943B03CE0119
:1001C0000E94260366E081E00E941903809183006B
:1001D0001F928F931F930F931F92DF92DF93CF9302
:1001E0000E943B03CE010E9426038DB79EB7409626
:1001F0000FB6F8949EBF0FBE8DBFDF91CF911F91B8
:100200000F91FF90EF90DF9008951F920F920FB61D
:100210000F921124EF92FF920F931F932F933F930E
:100220004F935F936F937F938F939F93AF93BF93FE
:10023000CF93DF93EF93FF93809174008F3039F564
:1002400060E085E790E00E94DC0120E047E066E79F
:1002500070E085E790E00E941E0285E790E00E9432
:10026000FD01C6E7D0E00DE710E00F2EFEE7EF2E10
:10027000F0E0FF2EF02D89910E945B00F801819340
:100280008F01CE15DF05B9F71092740003C08F5FA0
:100290008093740012BEFF91EF91DF91CF91BF91D7
:1002A000AF919F918F917F916F915F914F913F910E
:1002B0002F911F910F91FF90EF900F900FBE0F9015
:1002C0001F90189511BA0E94DA0260E080E00E9447
:1002D00010030E940C0389E69EE6A4E7B0E0809339
:1002E000840090938500A0938600B093870084E8F3
:1002F00090E00E9426030E940C0385E790E00E9494
:10030000B40160E085E790E00E94B801811108C067
:100310000E9456007894F8940E9466007894FBCF6F
:1003200085E790E00E94FD0187E0ECE6F0E0A4E8BC
:10033000B0E001900D928A95E1F784E890E00E9488
:1003400026030E940C0380E090E0089560ED85E7AD
:1003500090E00E94B101089585E790E00E945D025F
:100360000895FC016083089511B88CE080B9089568
:1003700024EA26BF06B607FEFDCF21B1287F28302C
:1003800011F0203191F4FC018081680F63B984E899
:1003900086BF06B607FEFDCF91B1987F983139F040
:1003A00081E0903429F480E0089581E0089580E0B0
:1003B00008950E94B8010895FC0194EA24E834E904
:1003C00096BF06B607FEFDCF81B1887F883011F059
:1003D0008031B1F78081860F83B926BF06B607FE4C
:1003E000FDCF81B1887F803211F0883529F436BF86
:1003F00006B604FCFDCFE4CF089584E986BF06B6B7
:1004000004FCFDCF089563B984E886BF06B607FEF5
:10041000FDCF91B1987F81E0983209F480E0089592
:1004200084EC86BF06B607FEFDCF83B1089584E84D
:1004300086BF06B607FEFDCF83B10895AF92BF9287
:10044000CF92DF92EF92FF920F931F93CF93DF93A0
:100450008C016B01A42E622F0E94030261E0C8018F
:100460000E94D901EA2CF12C81E0E81AF1081E144F
:100470001F0474F4B12CE601CB0DD11DC8010E94FC
:1004800010028883B3942B2D30E02E153F059CF38A
:100490008A2D90E00197E601C80FD91FC8010E947C
:1004A00017028883DF91CF911F910F91FF90EF90FA
:1004B000DF90CF90BF90AF90089508958150F0F7EE
:1004C000089582E00E945E02D99A81E00E945E0255
:1004D000D998089581509040E8F70895CF938AB352
:1004E0008E608ABB8AB38F708ABB8BB3846F8BBBE1
:1004F000DB9882E00E945E02D99A81E00E945E024F
:10050000C9B3D99882E00E945E02D99A81E00E9424
:100510005E0289B3C07F82958F70D9988C2BCF9162
:1005200008950E946E028823E4F30895CF93C82FA4
:100530000E9491028AB38E6F8ABB8BB381708BBB92
:100540008BB39C2F907F892B8BBB0E9461028BB356
:1005500081708BBB2BB330E1C39FC0011124822B70
:100560008BBB0E946102CF910895CF93C82F0E9448
:1005700091028AB38E6F8ABB8BB381708BBB8BB3B6
:1005800088609C2F907F892B8BBB0E9461028BB36C
:1005900081708BBB2BB3286030E1C39FC001112455
:1005A000822B8BBB0E946102CF91089581E00E9453
:1005B000960208958AB38E6F8ABB8EEF95E30E94F0
:1005C0006A028BB381708BBB8BB380638BBB0E9441
:1005D000610282EC9EE00E946A020E9461028CE548
:1005E00090E00E946A020E9461028CE590E00E9405
:1005F0006A02DC980E9461028CE590E00E946A0227
:1006000088E20E94960286E00E9496020E94D6022C
:100610008FE00E949602089582E00E94960208955B
:10062000882311F08EE001C08CE0860F0E949602B4
:100630000895823050F4603140F490E4899F600D59
:100640001124862F80580E9496020895CF93DF933D
:10065000EC018881882331F021960E94B5028991AE
:100660008111FBCFDF91CF910895EE0FFF1F059011
:10067000F491E02D0994AEE0B0E0E1E4F3E00C94F5
:10068000F1050D891E898F89988D26E02C831A83A8
:10069000098397FF02C080E090E801979E838D83D5
:1006A000AE01455E5F4F698D7A8DCE0101960E9445
:1006B0006B034D815E8157FD0AC02F81388542173B
:1006C00053070CF49A01F801E20FF31F10822E96E3
:1006D000E4E00C940D06ACE0B0E0E1E7F3E00C944C
:1006E000E3057C016B018A01FC011782168283817C
:1006F00081FFBDC1CE0101964C01F7019381F60146
:1007000093FD859193FF81916F01882309F4ABC11B
:10071000853239F493FD859193FF81916F01853284
:1007200029F4B70190E00E945305E7CF512C312CFA
:1007300020E02032A0F48B3269F030F4803259F09E
:10074000833269F420612CC08D3239F0803339F462
:10075000216026C02260246023C0286021C027FDBC
:1007600027C030ED380F3A3078F426FF06C0FAE0A3
:100770005F9E300D1124532E13C08AE0389E300D39
:100780001124332E20620CC08E3221F426FD6BC161
:10079000206406C08C3611F4206802C0883641F40B
:1007A000F60193FD859193FF81916F018111C1CF76
:1007B000982F9F7D9554933028F40C5F1F4FFFE3D3
:1007C000F9830DC0833631F0833771F0833509F03A
:1007D0005BC022C0F801808189830E5F1F4F4424D3
:1007E0004394512C540115C03801F2E06F0E711C76
:1007F000F801A080B18026FF03C0652D70E002C023
:100800006FEF7FEFC5012C870E9448052C01830103
:100810002C852F77222E17C03801F2E06F0E711C45
:10082000F801A080B18026FF03C0652D70E002C0F2
:100830006FEF7FEFC5012C870E943D052C012C85B1
:100840002068222E830123FC1BC0832D90E04816D4
:100850005906B0F4B70180E290E00E9453053A9443
:10086000F4CFF50127FC859127FE81915F01B70147
:1008700090E00E94530531103A94F1E04F1A51086C
:100880004114510471F7E5C0843611F0893639F509
:10089000F80127FF07C060817181828193810C5F1D
:1008A0001F4F08C060817181882777FD8095982F40
:1008B0000E5F1F4F2F76B22E97FF09C0909580953F
:1008C000709561957F4F8F4F9F4F2068B22E2AE021
:1008D00030E0A4010E948505A82EA81844C08537E1
:1008E00029F42F7EB22E2AE030E025C0F22FF97FC6
:1008F000BF2E8F36C1F018F4883579F0B4C0803738
:1009000019F0883721F0AFC02F2F2061B22EB4FE2E
:100910000DC08B2D8460B82E09C024FF0AC09F2F04
:100920009660B92E06C028E030E005C020E130E036
:1009300002C020E132E0F801B7FE07C0608171819A
:10094000828193810C5F1F4F06C06081718180E0BE
:1009500090E00E5F1F4FA4010E948505A82EA818E5
:10096000FB2DFF77BF2EB6FE0BC02B2D2E7FA514BF
:1009700050F4B4FE0AC0B2FC08C02B2D2E7E05C078
:100980007A2C2B2D03C07A2C01C0752C24FF0DC0AE
:10099000FE01EA0DF11D8081803311F4297E09C02A
:1009A00022FF06C07394739404C0822F867809F0E6
:1009B000739423FD13C020FF06C05A2C731418F43F
:1009C000530C5718732C731468F4B70180E290E04D
:1009D0002C870E94530573942C85F5CF731410F463
:1009E000371801C0312C24FF12C0B70180E390E01A
:1009F0002C870E9453052C8522FF17C021FF03C0BE
:100A000088E590E002C088E790E0B7010CC0822F33
:100A1000867859F021FD02C080E201C08BE227FDFB
:100A20008DE2B70190E00E945305A51438F4B70198
:100A300080E390E00E9453055A94F7CFAA94F40102
:100A4000EA0DF11D8081B70190E00E945305A110CD
:100A5000F5CF332009F451CEB70180E290E00E9437
:100A600053053A94F6CFF7018681978102C08FEF44
:100A70009FEF2C96E2E10C94FF05FC01059061507C
:100A800070400110D8F7809590958E0F9F1F0895A4
:100A9000FC016150704001900110D8F7809590954D
:100AA0008E0F9F1F08950F931F93CF93DF93182FDF
:100AB000092FEB018B8181FD03C08FEF9FEF20C0D9
:100AC00082FF10C04E815F812C813D814217530708
:100AD0007CF4E881F9819F012F5F3F4F39832883A0
:100AE000108306C0E885F985812F0995892B29F7A0
:100AF0002E813F812F5F3F4F3F832E83812F902F89
:100B0000DF91CF911F910F910895FA01AA27283004
:100B100051F1203181F1E8946F936E7F6E5F7F4FCA
:100B20008F4F9F4FAF4FB1E03ED0B4E03CD0670F46
:100B3000781F891F9A1FA11D680F791F8A1F911D99
:100B4000A11D6A0F711D811D911DA11D20D009F4E9
:100B500068943F912AE0269F11243019305D31932B
:100B6000DEF6CF010895462F4770405D4193B3E014
:100B70000FD0C9F7F6CF462F4F70405D4A3318F0BB
:100B8000495D31FD4052419302D0A9F7EACFB4E06C
:100B9000A6959795879577956795BA95C9F7009724
:100BA0006105710508959B01AC010A2E06945795C5
:100BB000479537952795BA95C9F7620F731F841F1C
:100BC000951FA01D08952F923F924F925F926F92B2
:100BD0007F928F929F92AF92BF92CF92DF92EF92CD
:100BE000FF920F931F93CF93DF93CDB7DEB7CA1B4E
:100BF000DB0B0FB6F894DEBF0FBECDBF09942A8879
:100C0000398848885F846E847D848C849B84AA8420
:100C1000B984C884DF80EE80FD800C811B81AA81AD
:100C2000B981CE0FD11D0FB6F894DEBF0FBECDBF78
:100C3000ED01089510E0C6E5D0E004C0FE010E9479
:0E0C400037032296C835D107C9F7F894FFCFC5
:100C4E0025643A002564200025642D004661696CF8
:040C5E0065640000C9
:00000001FF
