:100000000C942C000C9454000C9454000C94540048
:100010000C9454000C9454000C9454000C94540010
:100020000C9454000C9454000C9454000C94BA0694
:100030000C9454000C9454000C9454000C945400F0
:100040000C9454000C9454000C9454000C945400E0
:100050000C9454004B08580811241FBECFE5D8E07B
:10006000DEBFCDBF10E0A0E6B0E0E0EEF1E202C0FE
:1000700005900D92A43AB107D9F720E0A4EAB0E0C8
:1000800001C01D92AE3CB207E1F710E0C6E5D0E03A
:1000900004C02297FE010E94D90DC435D107C9F7CB
:1000A0000E9425070C94E3100C940000CF93DF937B
:1000B0001F92CDB7DEB78983898182958F70880FB3
:1000C000982F990F990F980F89818F70890F0F9032
:1000D000DF91CF910895CF93DF931F92CDB7DEB715
:1000E000898399818DEC989F812D11248695869521
:1000F0008695282F2295207F99818DEC989F812DC0
:100100001124869586958695880F382F330F330FE7
:10011000830F392F381B832F820F0F90DF91CF91E0
:100120000895CF93DF93CDB7DEB783E590E021E06C
:10013000FC01208382E590E0FC01108289E590E0DB
:1001400021E0FC012083DF91CF910895CF93DF93CD
:10015000CDB7DEB70E94DF0B60E080E00E94460C66
:100160000E943C0CDF91CF9108950F931F93CF9382
:10017000DF9300D0CDB7DEB781E390E0FC011082C1
:1001800087E390E02FEFFC01208347E050E060E040
:1001900070E084EC90E00E94DF0F0E94A6008CECDF
:1001A00090E00E94790860E08CEC90E00E948E085C
:1001B000898319C08CEC90E00E94630960E08CECAC
:1001C00090E00E948E08898387E0E0E9F0E0A4EAED
:1001D000B0E001900D928A95E1F784EA90E00E94E8
:1001E000AD0C0E943C0C8981882321F760E08CECE7
:1001F00090E00E94F90820E047E06CEB70E08CECA6
:1002000090E00E94F4098CEC90E00E9463091A824D
:1002100015C08A81082F10E08A81882F90E08454CD
:100220009F4FFC0180810E945600282FC8018B54EB
:100230009F4FFC0120838A818F5F8A838A81873068
:1002400040F30E9491000F900F90DF91CF911F918A
:100250000F910895CF93DF93CDB7DEB789E590E096
:1002600029E530E0F90120812E7FFC012083DF9118
:10027000CF910895CF93DF93CDB7DEB789E590E0B6
:1002800029E530E0F90120812160FC012083DF9124
:10029000CF910895CF93DF93CDB7DEB788E390E099
:1002A00021E0FC012083DF91CF910895CF93DF936C
:1002B000CDB7DEB788E390E0FC011082DF91CF91EB
:1002C0000895CF93DF9300D000D01F92CDB7DEB753
:1002D0009C838B836D830E943C0C82E0898346C0A3
:1002E0008981992787FD90952B813C81820F931FEF
:1002F000FC0180818A3018F480E30E94A00C89817F
:10030000992787FD90952B813C81820F931FFC01DB
:100310008081882F90E0292F2F938F9387E990E099
:10032000892F8F9387E990E08F931F9281E18F93BC
:1003300084EA90E0892F8F9384EA90E08F930E9463
:10034000DD0D8DB79EB708960FB6F894DEBF0FBED1
:10035000CDBF84EA90E00E94AD0C898118161CF490
:100360008AE30E94A00C8981815089838981882336
:100370000CF0B6CF60E081E00E94610C9D8181E0CD
:100380008927882309F44EC084E08A8346C08A8185
:10039000992787FD90952B813C81820F931FFC014B
:1003A00080818A3018F480E30E94A00C8A8199270A
:1003B00087FD90952B813C81820F931FFC018081EA
:1003C000882F90E0292F2F938F9387E990E0892F32
:1003D0008F9387E990E08F931F9281E18F9384EA56
:1003E00090E0892F8F9384EA90E08F930E94DD0D37
:1003F0008DB79EB708960FB6F894DEBF0FBECDBF7F
:1004000084EA90E00E94AD0C8A8186301CF48AE375
:100410000E94A00C8A818F5F8A838A8187300CF4C6
:10042000B6CF0DC089E0EAE9F0E0A4EAB0E00190BF
:100430000D928A95E1F784EA90E00E94AD0C6FE09E
:1004400080E00E94610C8091CB00882321F081E440
:100450000E94A00C03C080E20E94A00C0F900F909D
:100460000F900F900F90DF91CF910895EF92FF9230
:100470000F931F93CF93DF93CDB7DEB7EE970FB6F1
:10048000F894DEBF0FBECDBF8CAF7EAF6DAF1982CB
:100490001A828DAD9EAD6CAD0E9461010E942A0151
:1004A00061E081E00E94460C0E943C0C000080E369
:1004B00090E0FC018081882F90E08170992721E0F5
:1004C000009709F420E0222391F780E090E0A8EC67
:1004D000B1E48C839D83AE83BF8320E030E04AE7A4
:1004E00054E46C817D818E819F810E944C0DDC01E2
:1004F000CB0188879987AA87BB8720E030E040E856
:100500005FE3688579858A859B850E94CB0C88236B
:100510002CF481E090E09D878C873FC020E03FEF86
:100520004FE757E4688579858A859B850E94480D49
:1005300018164CF520E030E040E251E46C817D81FA
:100540008E819F810E944C0DDC01CB01BC01CD014D
:100550000E94CF0CDC01CB019D878C870FC084E605
:1005600090E09F878E878E859F850197F1F79F8703
:100570008E878C859D8501979D878C878C859D8531
:10058000009769F78CC3688579858A859B850E9469
:10059000CF0CDC01CB019D878C878C859D85998B49
:1005A000888B888999890197F1F7998B888B77C314
:1005B00080E390E0FC018081882F90E08270992791
:1005C00021E0009709F420E0222309F49DC08981ED
:1005D000873041F4198291E08A81F92FF81B8F2F1F
:1005E0008A830CC08981813019F08981843019F4A3
:1005F00089818F5F898389818F5F898369818A81FE
:100600000E94610C000080E390E0FC018081882F53
:1006100090E08270992721E0009709F420E02223DE
:1006200091F780E090E0A8ECB1E48A8B9B8BAC8BD7
:10063000BD8B20E030E04AE754E46A897B898C89ED
:100640009D890E944C0DDC01CB018E8B9F8BA88F66
:10065000B98F20E030E040E85FE36E897F89888DC4
:10066000998D0E94CB0C88232CF481E090E09B8F25
:100670008A8F3FC020E03FEF4FE757E46E897F89C4
:10068000888D998D0E94480D18164CF520E030E0B9
:1006900040E251E46A897B898C899D890E944C0DD6
:1006A000DC01CB01BC01CD010E94CF0CDC01CB01F0
:1006B0009B8F8A8F0FC084E690E09D8F8C8F8C8DEE
:1006C0009D8D0197F1F79D8F8C8F8A8D9B8D019762
:1006D0009B8F8A8F8A8D9B8D009769F7E0C26E8908
:1006E0007F89888D998D0E94CF0CDC01CB019B8F77
:1006F0008A8F8A8D9B8D9F8F8E8F8E8D9F8D019778
:10070000F1F79F8F8E8FCBC280E390E0FC01808158
:10071000882F90E08470992721E0009709F420E069
:10072000222309F457C18981882331F089818330DC
:1007300019F08981863039F50E94800C082F10E06D
:100740000E94940C882F90E0980122953295307F7A
:100750003227207F3227820F931F805A9F4FFC0140
:100760004081842F90E02DAD3EAD820F931F242F4A
:1007700030E04DAD5EAD240F351FF9012081265FBD
:10078000FC01208320C00E94800C082F10E00E94F2
:10079000940C882F90E0980122953295307F322773
:1007A000207F3227820F931F805A9F4FFC01808148
:1007B000882F90E02DAD3EAD820F931FFC0120816C
:1007C0002F5FFC0120830E94800C082F10E00E9404
:1007D000940C882F90E0980122953295307F322733
:1007E000207F3227820F931F805A9F4FFC01808108
:1007F000882F90E02DAD3EAD820F931FFC01F0805D
:100800000E94800C082F10E00E94940C882F90E02A
:100810009801220F331F220F331F220F331F820F25
:10082000931F80589F4FFC01908181E09F1508F035
:1008300080E0882309F443C00E94800C082F10E058
:100840000E94940C882F90E09801220F331F220FF2
:10085000331F220F331F820F931F80589F4FFC01BD
:100860008081882F90E08C010F5F1F4F0E94800CC9
:10087000E82EF12C0E94940C882F90E0970122958D
:100880003295307F3227207F3227820F931F805A84
:100890009F4FFC014081842F90E02DAD3EAD820F33
:1008A000931F242F30E04DAD5EAD240F351FF901AD
:1008B0002081222F30E0201B310BFC0120838DADE5
:1008C0009EAD6CAD0E94610169818A810E94610CBC
:1008D000000080E390E0FC018081882F90E084702C
:1008E000992721E0009709F420E0222391F780E086
:1008F00090E0A8ECB1E488A399A3AAA3BBA320E04D
:1009000030E04AE754E468A179A18AA19BA10E9442
:100910004C0DDC01CB018CA39DA3AEA3BFA320E0B3
:1009200030E040E85FE36CA17DA18EA19FA10E9411
:10093000CB0C88232CF481E090E099A788A73FC0D6
:1009400020E03FEF4FE757E46CA17DA18EA19FA16E
:100950000E94480D18164CF520E030E040E251E4CA
:1009600068A179A18AA19BA10E944C0DDC01CB0159
:10097000BC01CD010E94CF0CDC01CB0199A788A757
:100980000FC084E690E09BA78AA78AA59BA5019744
:10099000F1F79BA78AA788A599A5019799A788A78A
:1009A00088A599A5009769F77AC16CA17DA18EA150
:1009B0009FA10E94CF0CDC01CB0199A788A788A535
:1009C00099A59DA78CA78CA59DA50197F1F79DA73B
:1009D0008CA765C180E390E0FC018081882F90E0C6
:1009E0008870992721E0009709F420E0222309F478
:1009F00056C18981882331F08981833019F089813A
:100A0000863039F50E94800C082F10E00E94940C6B
:100A1000882F90E0980122953295307F3227207FF1
:100A20003227820F931F805A9F4FFC014081842FF1
:100A300090E02DAD3EAD820F931F242F30E04DADE1
:100A40005EAD240F351FF90120812A50FC0120835F
:100A500020C00E94800C082F10E00E94940C882F68
:100A600090E0980122953295307F3227207F3227FF
:100A7000820F931F805A9F4FFC018081882F90E046
:100A80002DAD3EAD820F931FFC0120812150FC0152
:100A900020830E94800C082F10E00E94940C882F65
:100AA00090E0980122953295307F3227207F3227BF
:100AB000820F931F805A9F4FFC018081882F90E006
:100AC0002DAD3EAD820F931FFC01F0800E94800C83
:100AD000082F10E00E94940C882F90E09801220FBC
:100AE000331F220F331F220F331F820F931F805893
:100AF0009F4FFC01908181E09F1508F080E08823E2
:100B000009F443C00E94800C082F10E00E94940C4E
:100B1000882F90E09801220F331F220F331F220FDE
:100B2000331F820F931F80589F4FFC018081882FB5
:100B300090E08C010F5F1F4F0E94800CE82EF12C7B
:100B40000E94940C882F90E0970122953295307F77
:100B50003227207F3227820F931F805A9F4FFC013C
:100B60004081842F90E02DAD3EAD820F931F242F46
:100B700030E04DAD5EAD240F351FF9012081222FED
:100B800030E0200F311FFC0120838DAD9EAD6CAD98
:100B90000E94610169818A810E94610C000080E3EA
:100BA00090E0FC018081882F90E08870992721E0F7
:100BB000009709F420E0222391F780E090E0A8EC70
:100BC000B1E48EA79FA7A8ABB9AB20E030E04AE71D
:100BD00054E46EA57FA588A999A90E944C0DDC015B
:100BE000CB018AAB9BABACABBDAB20E030E040E8C7
:100BF0005FE36AA97BA98CA99DA90E94CB0C8823DD
:100C00002CF481E090E09FAB8EAB3FC020E03FEF43
:100C10004FE757E46AA97BA98CA99DA90E94480DBA
:100C200018164CF520E030E040E251E46EA57FA5B7
:100C300088A999A90E944C0DDC01CB01BC01CD0112
:100C40000E94CF0CDC01CB019FAB8EAB0FC084E6C2
:100C500090E099AF88AF88AD99AD0197F1F799AF62
:100C600088AF8EA99FA901979FAB8EAB8EA99FA934
:100C7000009769F714C06AA97BA98CA99DA90E9455
:100C8000CF0CDC01CB019FAB8EAB8EA99FA99BAF94
:100C90008AAF8AAD9BAD0197F1F79BAF8AAF80E336
:100CA00090E0FC018081882F90E08170992721E0FD
:100CB000009709F020E0222309F07ACC9CAD81E076
:100CC00089278823B9F181E08B8318C08B81082F95
:100CD00010E08B81882F90E001972DAD3EAD820F03
:100CE000931FFC0180810E946B00282FC80184544F
:100CF0009F4FFC0120838B818F5F8B838B8188309A
:100D000028F31092BC0060E08CEC90E00E94F9089F
:100D100048E050E06CEB70E08CEC90E00E94470AF9
:100D20008CEC90E00E94630964EC70E081E00E942A
:100D300036020DC047E050E060E070E084EC90E0E7
:100D40000E94EF0F60E085EB90E00E9461010E943D
:100D50003A0160E080E00E94460CEE960FB6F894EF
:100D6000DEBF0FBECDBFDF91CF911F910F91FF90DE
:100D7000EF9008951F920F9200905F000F92112440
:100D80000F931F932F933F934F935F936F937F9393
:100D90008F939F93AF93BF93EF93FF93CF93DF9383
:100DA0001F92CDB7DEB78091CD008F3071F560E036
:100DB0008CEC90E00E94F90820E047E06CEB70E0DA
:100DC0008CEC90E00E94F4098CEC90E00E946309A6
:100DD000198215C08981082F10E08981882F90E041
:100DE00084549F4FFC0180810E945600282FC80127
:100DF0008B549F4FFC01208389818F5F8983898178
:100E0000873040F31092CD0005C08091CD008F5FF8
:100E10008093CD0082E590E0FC0110820F90DF917D
:100E2000CF91FF91EF91BF91AF919F918F917F9162
:100E30006F915F914F913F912F911F910F910F9063
:100E400000925F000F901F901895CF93DF93CDB75E
:100E5000DEB72E970FB6F894DEBF0FBECDBF0E944F
:100E6000B5007894F89460E085EB90E00E94610111
:100E7000789480E390E0FC018081882F90E081707D
:100E8000992721E0009709F420E0222309F486C085
:100E900065EB70E080E00E943602000080E390E0A5
:100EA000FC018081882F90E08170992721E00097D4
:100EB00009F420E0222391F780E090E0A8ECB1E46F
:100EC00089839A83AB83BC8320E030E04AE754E413
:100ED00069817A818B819C810E944C0DDC01CB0160
:100EE0008D839E83AF83B88720E030E040E85FE3E6
:100EF0006D817E818F8198850E94CB0C88232CF494
:100F000081E090E09A8789873FC020E03FEF4FE77C
:100F100057E46D817E818F8198850E94480D181657
:100F20004CF520E030E040E251E469817A818B8128
:100F30009C810E944C0DDC01CB01BC01CD010E94C3
:100F4000CF0CDC01CB019A8789870FC084E690E043
:100F50009C878B878B859C850197F1F79C878B8776
:100F600089859A8501979A87898789859A850097C7
:100F700069F714C06D817E818F8198850E94CF0CA6
:100F8000DC01CB019A87898789859A859E878D8721
:100F90008D859E850197F1F79E878D878091CB0087
:100FA000882331F19091B5008091C400981771F4B5
:100FB0009091B6008091C500981741F49091B700C8
:100FC0008091C600981711F40E944A0188E390E0CE
:100FD000FC018081882F90E08170992721E00097A3
:100FE00009F420E0222321F00E9456011092CB0048
:100FF00080E390E0FC018081882F90E08074992745
:1010000021E0009709F420E02223A9F09091CB0081
:1010100081E089278093CB00000080E390E0FC0111
:101020008081882F90E08074992721E0009709F44F
:1010300020E0222391F716CFCF93DF9300D000D08A
:10104000CDB7DEB79A8389837C836B8389819A814C
:101050008130910559F48B819C818F3F2FEF92074E
:1010600029F460ED8CEC90E00E94650889819A81FA
:10107000009751F48B819C818F3F2FEF920721F4D1
:101080008CEC90E00E947B0A0F900F900F900F90D5
:10109000DF91CF910895CF93DF93CDB7DEB76FEF98
:1010A0007FEF81E090E00E941C08DF91CF910895CE
:1010B000CF93DF93CDB7DEB76FEF7FEF80E090E0A7
:1010C0000E941C08DF91CF910895CF93DF9300D049
:1010D0001F92CDB7DEB79A8389836B8389819A810A
:1010E0002B81FC0120830F900F900F90DF91CF9107
:1010F0000895CF93DF9300D0CDB7DEB79A8389836D
:1011000081E290E0FC01108280E290E02CE0FC01A2
:1011100020830F900F90DF91CF910895CF93DF93AD
:1011200000D000D0CDB7DEB79B838A836C8386E581
:1011300090E024EAFC012083000086E590E0FC01B9
:1011400080818095881F8827881F8823B1F781E2D6
:1011500090E0FC018081887F89838981883029F033
:101160008981803111F081E029C083E290E02A81F9
:101170003B81F90130812C81230FFC01208386E51E
:1011800090E024E8FC012083000086E590E0FC016B
:1011900080818095881F8827881F8823B1F781E286
:1011A00090E0FC018081887F89838981883129F0E2
:1011B0008981803411F081E001C080E00F900F90B0
:1011C0000F900F90DF91CF910895CF93DF9300D0D0
:1011D0001F92CDB7DEB79A8389836B8389819A8109
:1011E0006B810E948E080F900F900F90DF91CF912E
:1011F0000895CF93DF9300D000D0CDB7DEB79B83A7
:101200008A836C8386E590E024EAFC012083000059
:1012100086E590E0FC0180818095881F8827881FE3
:101220008823B1F781E290E0FC018081887F898387
:101230008981883021F08981803109F03CC083E2C6
:1012400090E02A813B81F90130812C81230FFC0140
:10125000208386E590E024E8FC012083000086E5F9
:1012600090E0FC0180818095881F8827881F882353
:10127000B1F781E290E0FC018081887F89838981D8
:10128000803219F089818835A9F486E590E024E957
:10129000FC012083000086E590E0FC018081882F1E
:1012A00090E08071992721E0009709F420E0222343
:1012B00091F701C001C0A6CF0F900F900F900F9033
:1012C000DF91CF910895CF93DF9300D0CDB7DEB7F4
:1012D0009A83898386E590E024E9FC01208300005D
:1012E00086E590E0FC018081882F90E0807199274D
:1012F00021E0009709F420E0222391F70F900F904E
:10130000DF91CF910895CF93DF9300D000D0CDB778
:10131000DEB79B838A836C8383E290E02C81FC019F
:10132000208386E590E024E8FC012083000086E528
:1013300090E0FC0180818095881F8827881F882382
:10134000B1F781E290E0FC018081887F8983898107
:10135000883211F081E001C080E00F900F900F9073
:101360000F90DF91CF910895CF93DF9300D0CDB749
:10137000DEB79A83898386E590E024ECFC01208324
:10138000000086E590E0FC0180818095881F882719
:10139000881F8823B1F783E290E0FC0180810F90E1
:1013A0000F90DF91CF910895CF93DF9300D0CDB709
:1013B000DEB79A83898386E590E024E8FC012083E8
:1013C000000086E590E0FC0180818095881F8827D9
:1013D000881F8823B1F783E290E0FC0180810F90A1
:1013E0000F90DF91CF9108950F931F93CF93DF93C9
:1013F000CDB7DEB727970FB6F894DEBF0FBECDBFCF
:101400009B838A837D836C834E832F838A819B8118
:101410006F810E9483098A819B8161E00E94E508B7
:10142000198211C08981882F90E02C813D8189012A
:10143000080F191F8A819B810E94B409F8018083DB
:1014400089818F5F89838981282F30E08E81882F61
:1014500090E00197281739072CF38E81882F90E0B0
:1014600001972C813D818901080F191F8A819B8179
:101470000E94D409F801808327960FB6F894DEBF46
:101480000FBECDBFDF91CF911F910F910895CF93E4
:10149000DF93CDB7DEB727970FB6F894DEBF0FBE48
:1014A000CDBF9B838A837D836C835F834E83198248
:1014B00011C08981882F90E02C813D81820F931F7C
:1014C000FC0120818A819B81622F0E94830989818E
:1014D0008F5F89838981282F30E08E819F818217D9
:1014E000930738F727960FB6F894DEBF0FBECDBF2F
:1014F000DF91CF910895CF93DF9300D0CDB7DEB7C2
:101500009A8389830F900F90DF91CF910895CF93A5
:10151000DF931F92CDB7DEB7898389818150F0F7C1
:101520000F90DF91CF910895CF93DF9300D0CDB787
:10153000DEB79A83898389819A8181509040E8F748
:101540000F900F90DF91CF910895CF93DF931F926B
:10155000CDB7DEB78AE390E02AE330E0F9012081DD
:101560002E60FC0120838AE390E02AE330E0F90159
:1015700020812F70FC0120838BE390E02BE330E08F
:10158000F9012081246FFC0120838BE390E02BE3A1
:1015900030E0F9012081277FFC01208382E00E9456
:1015A000870A8BE390E02BE330E0F9012081226091
:1015B000FC01208381E00E94870A89E390E0FC011E
:1015C0008081807F89838BE390E02BE330E0F90119
:1015D00020812D7FFC01208382E00E94870A8BE31B
:1015E00090E02BE330E0F90120812260FC012083B0
:1015F00081E00E94870A89E390E0FC018081882FC6
:1016000090E095958795959587959595879595956E
:1016100087952981222F30E0822B932B89838BE3BE
:1016200090E02BE330E0F90120812D7FFC01208345
:1016300089810F90DF91CF910895CF93DF93CDB73C
:10164000DEB700000E94A50A881F8827881F88230C
:10165000C9F7DF91CF910895CF93DF93CDB7DEB770
:1016600082E00E94870A8BE390E02BE330E0F901EF
:1016700020812260FC01208381E00E94870A8BE3A5
:1016800090E02BE330E0F90120812D7FFC012083E5
:10169000DF91CF910895CF93DF931F92CDB7DEB73F
:1016A00089830E941D0B8AE390E02AE330E0F90170
:1016B00020812E6FFC0120838BE390E02BE330E050
:1016C000F90120812170FC0120838BE390E02BE362
:1016D00030E0F9012081322F2981207F232BFC016A
:1016E00020830E942C0B8BE390E02BE330E0F90188
:1016F00020812170FC0120838BE390E02BE330E01C
:10170000F9012081422F2981222F30E02295329544
:10171000307F3227207F3227242BFC0120830E9438
:101720002C0B0F90DF91CF910895CF93DF931F92F1
:10173000CDB7DEB789830E941D0B8AE390E02AE3D0
:1017400030E0F90120812E6FFC0120838BE390E0D3
:101750002BE330E0F90120812170FC0120838BE331
:1017600090E02BE330E0F90130812981207F232BA9
:101770002860FC0120830E942C0B8BE390E02BE37C
:1017800030E0F90120812170FC0120838BE390E09F
:101790002BE330E0F90140812981222F30E02295AE
:1017A0003295307F3227207F3227242B2860FC019E
:1017B00020830E942C0B0F90DF91CF910895CF933F
:1017C000DF93CDB7DEB78AE390E02AE330E0F9019A
:1017D00020812E6FFC0120838EEF95E30E94940AF6
:1017E0008BE390E02BE330E0F90120812170FC01D4
:1017F00020838BE390E02BE330E0F901208120632C
:10180000FC0120830E942C0B82EC9EE00E94940A33
:101810000E942C0B8CE590E00E94940A0E942C0BF5
:101820008CE590E00E94940A8BE390E02BE330E09B
:10183000F90120812F7EFC0120830E942C0B8CE576
:1018400090E00E94940A88E20E944B0B86E00E947E
:101850004B0B0E94320C61E081E00E94460CDF914C
:10186000CF910895CF93DF93CDB7DEB781E00E948B
:101870004B0BDF91CF910895CF93DF93CDB7DEB7B8
:1018800082E00E944B0BDF91CF910895CF93DF93BD
:1018900000D0CDB7DEB789836A838981882311F0B0
:1018A0009EE001C09CE08A81882311F081E001C0A4
:1018B00080E0890F0E944B0B0F900F90DF91CF912A
:1018C0000895CF93DF9300D0CDB7DEB789836A83C5
:1018D0008981823080F48A81803168F48981882FFF
:1018E00090E00296982F9295990F990F907C8A819B
:1018F000890F0E944B0B0F900F90DF91CF910895AD
:10190000CF93DF93CDB7DEB70E941D0B0E94A50ACF
:10191000882F90E080749927009711F081E001C032
:1019200080E0DF91CF910895CF93DF93CDB7DEB7FD
:101930000E941D0B0E94A50A8F73DF91CF9108951D
:10194000CF93DF931F92CDB7DEB7898389810E9441
:10195000950B0F90DF91CF910895CF93DF9300D037
:10196000CDB7DEB79A8389830BC089819A819C01A8
:101970002F5F3F4F3A832983FC0180810E94A00C96
:1019800089819A81FC018081882379F70F900F90DB
:10199000DF91CF9108952FD008F481E0089557D0BA
:1019A00088F09F5790F0B92F9927B751A0F0D1F048
:1019B000660F771F881F991F1AF0BA95C9F712C0D2
:1019C000B13081F05ED0B1E008955BC0672F782F11
:1019D0008827B85F39F0B93FCCF38695779567953E
:1019E000B395D9F73EF490958095709561957F4FAA
:1019F0008F4F9F4F0895990F0008550FAA0BE0E8ED
:101A0000FEEF16161706E807F907C0F012161306C0
:101A1000E407F50798F0621B730B840B950B39F400
:101A20000A2661F0232B242B252B21F408950A2666
:101A300009F4A140A6958FEF811D811D089557FDE2
:101A40009058440F551F59F05F3F71F04795880F2C
:101A500097FB991F61F09F3F79F0879508951216C3
:101A600013061406551FF2CF4695F1DF08C016166F
:101A700017061806991FF1CF869571056105089420
:101A80000895E894BB2766277727CB0197F9089537
:101A9000B2DF08F48FEF08950BD078C069D028F03A
:101AA0006ED018F0952309F05AC05FC01124EACF18
:101AB000C6DFA0F3959FD1F3950F50E0551F629FAD
:101AC000F001729FBB27F00DB11D639FAA27F00D97
:101AD000B11DAA1F649F6627B00DA11D661F829FBE
:101AE0002227B00DA11D621F739FB00DA11D621FA3
:101AF000839FA00D611D221F749F3327A00D611DC0
:101B0000231F849F600D211D822F762F6A2F1124A1
:101B10009F5750408AF0E1F088234AF0EE0FFF1FF4
:101B2000BB1F661F771F881F91505040A9F79E3F2B
:101B3000510570F014C0A6CF5F3FECF3983EDCF384
:101B4000869577956795B795F795E7959F5FC1F768
:101B5000FE2B880F911D9695879597F9089597F913
:101B60009F6780E870E060E008959FEF80EC089543
:101B700000240A941616170618060906089500246C
:101B80000A9412161306140605060895092E0394E6
:101B9000000C11F4882352F0BB0F40F4BF2B11F45A
:101BA00060FF04C06F5F7F4F8F4F9F4F0895EE0F10
:101BB000FF1F0590F491E02D0994AEE0B0E0E3EE54
:101BC000FDE00C94BA100D891E898F89988D26E04E
:101BD0002C831A83098397FF02C080E090E8019765
:101BE0009E838D83AE01455E5F4F698D7A8DCE01F8
:101BF00001960E940D0E4D815E8157FD0AC02F8116
:101C00003885421753070CF49A01F801E20FF31FCD
:101C100010822E96E4E00C94D610ACE0B0E0E3E144
:101C2000FEE00C94AC107C016B018A01FC01178270
:101C30001682838181FFBDC1CE0101964C01F7015F
:101C40009381F60193FD859193FF81916F01882324
:101C500009F4ABC1853239F493FD859193FF8191ED
:101C60006F01853229F4B70190E00E941C10E7CF84
:101C7000512C312C20E02032A0F48B3269F030F46A
:101C8000803259F0833269F420612CC08D3239F0F2
:101C9000803339F4216026C02260246023C028608C
:101CA00021C027FD27C030ED380F3A3078F426FFE9
:101CB00006C0FAE05F9E300D1124532E13C08AE057
:101CC000389E300D1124332E20620CC08E3221F448
:101CD00026FD6BC1206406C08C3611F4206802C05A
:101CE000883641F4F60193FD859193FF81916F0150
:101CF0008111C1CF982F9F7D9554933028F40C5FAC
:101D00001F4FFFE3F9830DC0833631F0833771F045
:101D1000833509F05BC022C0F801808189830E5FA2
:101D20001F4F44244394512C540115C03801F2E054
:101D30006F0E711CF801A080B18026FF03C0652DD5
:101D400070E002C06FEF7FEFC5012C870E94111079
:101D50002C0183012C852F77222E17C03801F2E049
:101D60006F0E711CF801A080B18026FF03C0652DA5
:101D700070E002C06FEF7FEFC5012C870E94061054
:101D80002C012C852068222E830123FC1BC0832D6F
:101D900090E048165906B0F4B70180E290E00E9446
:101DA0001C103A94F4CFF50127FC859127FE819110
:101DB0005F01B70190E00E941C1031103A94F1E0ED
:101DC0004F1A51084114510471F7E5C0843611F0DF
:101DD000893639F5F80127FF07C06081718182815A
:101DE00093810C5F1F4F08C060817181882777FD48
:101DF0008095982F0E5F1F4F2F76B22E97FF09C048
:101E000090958095709561957F4F8F4F9F4F20687B
:101E1000B22E2AE030E0A4010E944E10A82EA8188D
:101E200044C0853729F42F7EB22E2AE030E025C049
:101E3000F22FF97FBF2E8F36C1F018F4883579F074
:101E4000B4C0803719F0883721F0AFC02F2F206140
:101E5000B22EB4FE0DC08B2D8460B82E09C024FFB5
:101E60000AC09F2F9660B92E06C028E030E005C05A
:101E700020E130E002C020E132E0F801B7FE07C007
:101E800060817181828193810C5F1F4F06C06081E8
:101E9000718180E090E00E5F1F4FA4010E944E1000
:101EA000A82EA818FB2DFF77BF2EB6FE0BC02B2D3A
:101EB0002E7FA51450F4B4FE0AC0B2FC08C02B2D2E
:101EC0002E7E05C07A2C2B2D03C07A2C01C0752CD8
:101ED00024FF0DC0FE01EA0DF11D8081803311F455
:101EE000297E09C022FF06C07394739404C0822F18
:101EF000867809F0739423FD13C020FF06C05A2C86
:101F0000731418F4530C5718732C731468F4B70136
:101F100080E290E02C870E941C1073942C85F5CFF2
:101F2000731410F4371801C0312C24FF12C0B7010C
:101F300080E390E02C870E941C102C8522FF17C0A4
:101F400021FF03C088E590E002C088E790E0B70178
:101F50000CC0822F867859F021FD02C080E201C0BA
:101F60008BE227FD8DE2B70190E00E941C10A514C2
:101F700038F4B70180E390E00E941C105A94F7CF28
:101F8000AA94F401EA0DF11D8081B70190E00E944E
:101F90001C10A110F5CF332009F451CEB70180E217
:101FA00090E00E941C103A94F6CFF7018681978149
:101FB00002C08FEF9FEF2C96E2E10C94C810DC0179
:101FC000CB01FC01E199FECF06C0FFBBEEBBE09A5E
:101FD00031960DB20D9241505040B8F70895DC0192
:101FE000CB0103C02D910E94FA0F41505040D0F711
:101FF0000895262FE199FECF9FBB8EBB2DBB0FB658
:10200000F894E29AE19A0FBE01960895FC010590BA
:10201000615070400110D8F7809590958E0F9F1FEA
:102020000895FC016150704001900110D8F780952F
:1020300090958E0F9F1F08950F931F93CF93DF935B
:10204000182F092FEB018B8181FD03C08FEF9FEFCC
:1020500020C082FF10C04E815F812C813D814217DC
:1020600053077CF4E881F9819F012F5F3F4F39834B
:102070002883108306C0E885F985812F0995892B6F
:1020800029F72E813F812F5F3F4F3F832E83812F82
:10209000902FDF91CF911F910F910895FA01AA27F8
:1020A000283051F1203181F1E8946F936E7F6E5F9B
:1020B0007F4F8F4F9F4FAF4FB1E03ED0B4E03CD049
:1020C000670F781F891F9A1FA11D680F791F8A1F2C
:1020D000911DA11D6A0F711D811D911DA11D20D093
:1020E00009F468943F912AE0269F11243019305D4D
:1020F0003193DEF6CF010895462F4770405D41933E
:10210000B3E00FD0C9F7F6CF462F4F70405D4A338A
:1021100018F0495D31FD4052419302D0A9F7EACF52
:10212000B4E0A6959795879577956795BA95C9F781
:1021300000976105710508959B01AC010A2E069474
:102140005795479537952795BA95C9F7620F731F2D
:10215000841F951FA01D08952F923F924F925F926A
:102160006F927F928F929F92AF92BF92CF92DF92A7
:10217000EF92FF920F931F93CF93DF93CDB7DEB70C
:10218000CA1BDB0B0FB6F894DEBF0FBECDBF0994A0
:102190002A88398848885F846E847D848C849B84F7
:1021A000AA84B984C884DF80EE80FD800C811B8105
:1021B000AA81B981CE0FD11D0FB6F894DEBF0FBE34
:1021C000CDBFED01089510E0C6E5D0E004C0FE01EA
:1021D0000E94D90D2296C835D107C9F7F894FFCFD0
:1021E0000202100101100000101010101010101049
:1021F0000404100505100606101010101010101021
:102200001717003B3B003B3B1F1F000C0C00636398
:102210004661696C65640025640020202020202030
:04222000202000007A
:00000001FF
