:100000000C942C000C9454000C9454000C94540048
:100010000C9454000C9454000C9454000C94540010
:100020000C9454000C9454000C9454000C949301C0
:100030000C9454000C9454000C9454000C945400F0
:100040000C9454000C9454000C9454000C945400E0
:100050000C94540045024B0211241FBECFE5D8E09A
:10006000DEBFCDBF10E0A0E6B0E0ECEEFDE002C0E8
:1000700005900D92A639B107D9F720E0A6E9B0E0C6
:1000800001C01D92AD3BB207E1F710E0C6E5D0E03C
:1000900004C02297FE010E940604C435D107C9F7A7
:1000A0000E94F5010C94E9060C94000081E083BFE6
:1000B00012BE89BF089589B78E7F89BF089589B719
:1000C000816089BF0895FF920F931F93CF93DF93B1
:1000D0000E94CD0380919F001F928F938091A0007A
:1000E0001F928F938091A1001F928F938091A20005
:1000F0001F928F938091A3001F928F938091A400F1
:100100001F928F9300E810E01F930F931F920F2E02
:10011000F1E1FF2EF02DFF92CCEAD0E0DF93CF93F8
:100120000E940A04CE010E94F50360E081E00E9473
:10013000DA038091AA001F928F938091AB001F92E7
:100140008F938091A8001F928F938091A9001F9296
:100150008F938091A6001F928F938091A7001F928A
:100160008F931F930F931F92FF92DF93CF930E9461
:100170000A048DB79EB784960FB6F8949EBF0FBE43
:100180008DBFCE010E94F503DF91CF911F910F919A
:10019000FF9008950F931F93CF93DF930E945B000E
:1001A00061E081E00E94D1030E94CD038099FECFDF
:1001B00087EA91E60197F1F700C00000D0E0C0E0C7
:1001C00011E06BC0819B1EC0C73049F4912F9D1B6D
:1001D000D92F60E0892F0E94DA03C0E00AC0C13045
:1001E00011F0C43009F4CF5FCF5F6C2F8D2F0E94C8
:1001F000DA038199FECF87EA91E60197F1F700C013
:1002000000004BC0829B24C00E94E703082F0E947D
:10021000EF0390E1099F90011124280F311DF9018E
:10022000E05AFF4FE081F0E0E156FF4F80818F5FA1
:1002300080830E9463006C2F8D2F0E94DA038299C5
:10024000FECF87EA91E60197F1F700C0000025C0D4
:10025000839B23C00E94E703082F0E94EF0390E1D5
:10026000099F90011124280F311DF901E05AFF4F19
:10027000E081F0E0E156FF4F8081815080830E9451
:1002800063006C2F8D2F0E94DA038399FECF87EADB
:1002900091E60197F1F700C00000809B93CF22E028
:1002A00081E090E0CCE9D0E002C08F5F2F5F843026
:1002B000A1F0E92FF0E0A82FB0E0A856BF4FE1561B
:1002C000FF4F418130813F7050E1459F300D112437
:1002D0003C939E5F283048F308C0E92FF0E0E156D8
:1002E000FF4F308138839F5FE0CF1092980060E02D
:1002F00087E990E00E947B0248E050E068E970E006
:1003000087E990E00E94FC0287E990E00E949C024D
:100310000E945F0060E080E00E94D103DF91CF91F6
:100320001F910F9108951F920F920FB60F921124F3
:100330002F933F934F935F936F937F938F939F93ED
:10034000AF93BF93EF93FF93809196008F30C1F5E9
:1003500060E087E990E00E947B0220E047E068E9E6
:1003600070E087E990E00E94BD0287E990E00E947A
:100370009C0250919B0031E080E090E002C08F5FD2
:100380003F5F833099F0E92FF0E0A82FB0E0A85646
:10039000BF4F2C91E156FF4F422F4F704083229563
:1003A0002F7021839E5F373050F307C0E92FF0E0B4
:1003B000E156FF4F50839F5FE2CF1092960003C03B
:1003C0008F5F8093960012BEFF91EF91BF91AF9126
:1003D0009F918F917F916F915F914F913F912F915D
:1003E0000F900FBE0F901F90189511BA0E949B039B
:1003F00060E080E00E94D1030E94CD0389E69EE682
:10040000A4E7B0E08093AC009093AD00A093AE0061
:10041000B093AF008CEA90E00E94F5030E94CD03F8
:1004200087E990E00E94530260E087E990E00E9433
:100430005702811114C00E9456007894F8940E94CB
:1004400063007894809BFACF0E94CA008099FECF07
:1004500087EA91E60197F1F700C00000EFCF87E946
:1004600090E00E949C0287E0EFE8F0E0ACEAB0E0A8
:1004700001900D928A95E1F78CEA90E00E94F503D5
:100480000E94CD0380E090E0089560ED87E990E060
:100490000E945002089587E990E00E941E0308958B
:1004A000FC016083089511B88CE080B9089524EAB6
:1004B00026BF06B607FEFDCF21B1287F283011F0F8
:1004C000203191F4FC018081680F63B984E886BF14
:1004D00006B607FEFDCF91B1987F983139F081E0E3
:1004E000903429F480E0089581E0089580E0089533
:1004F0000E9457020895FC0194EA24E834E996BF6B
:1005000006B607FEFDCF81B1887F883011F08031BB
:10051000B1F78081860F83B926BF06B607FEFDCFEF
:1005200081B1887F803211F0883529F436BF06B654
:1005300004FCFDCFE4CF089584E986BF06B604FC31
:10054000FDCF089563B984E886BF06B607FEFDCFE8
:1005500091B1987F81E0983209F480E0089584ECAD
:1005600086BF06B607FEFDCF83B1089584E886BF37
:1005700006B607FEFDCF83B10895AF92BF92CF922A
:10058000DF92EF92FF920F931F93CF93DF938C0133
:100590006B01A42E622F0E94A20261E0C8010E949A
:1005A0007802EA2CF12C81E0E81AF1081E141F04ED
:1005B00074F4B12CE601CB0DD11DC8010E94AF022D
:1005C0008883B3942B2D30E02E153F059CF38A2DA4
:1005D00090E00197E601C80FD91FC8010E94B6023A
:1005E0008883DF91CF911F910F91FF90EF90DF9063
:1005F000CF90BF90AF900895DF92EF92FF920F934C
:100600001F93CF93DF937C018B01EA0120E030E060
:10061000D12CF801E20FF31F6081C7010E94A202F2
:10062000D3942D2D30E0C217D30798F7DF91CF91E7
:100630001F910F91FF90EF90DF90089508958150E2
:10064000F0F7089582E00E941F03D99A81E00E948A
:100650001F03D998089581509040E8F70895CF93EB
:100660008AB38E608ABB8AB38F708ABB8BB3846F68
:100670008BBBDB9882E00E941F03D99A81E00E9425
:100680001F03C9B3D99882E00E941F03D99A81E061
:100690000E941F0389B3C07F82958F70D9988C2BDD
:1006A000CF9108950E942F038823E4F30895CF93F8
:1006B000C82F0E9452038AB38E6F8ABB8BB381709E
:1006C0008BBB8BB39C2F907F892B8BBB0E9422030B
:1006D0008BB381708BBB2BB330E1C39FC00111245E
:1006E000822B8BBB0E942203CF910895CF93C82FFA
:1006F0000E9452038AB38E6F8ABB8BB381708BBB0F
:100700008BB388609C2F907F892B8BBB0E94220328
:100710008BB381708BBB2BB3286030E1C39FC001CA
:100720001124822B8BBB0E942203CF91089581E07C
:100730000E94570308958AB38E6F8ABB8EEF95E3AC
:100740000E942B038BB381708BBB8BB380638BBBFD
:100750000E94220382EC9EE00E942B030E9422034F
:100760008CE590E00E942B030E9422038CE590E030
:100770000E942B03DC980E9422038CE590E00E94EB
:100780002B0388E20E94570386E00E9457030E94D1
:1007900097038FE00E945703089582E00E94570359
:1007A0000895882311F08EE001C08CE0860F0E942E
:1007B00057030895823050F4603140F490E4899FEB
:1007C000600D1124862F80580E94570308950E94BF
:1007D00052030E942F0386FB882780F908950E9408
:1007E00052030E942F038F730895CF93DF93EC0180
:1007F0008881882331F021960E94760389918111A6
:10080000FBCFDF91CF910895EE0FFF1F0590F4917C
:10081000E02D0994AEE0B0E0E0E1F4E00C94C00615
:100820000D891E898F89988D26E02C831A83098370
:1008300097FF02C080E090E801979E838D83AE0110
:10084000455E5F4F698D7A8DCE0101960E943A0414
:100850004D815E8157FD0AC02F81388542175307AD
:100860000CF49A01F801E20FF31F10822E96E4E0D7
:100870000C94DC06ACE0B0E0E0E4F4E00C94B206EA
:100880007C016B018A01FC0117821682838181FF42
:10089000BDC1CE0101964C01F7019381F60193FD94
:1008A000859193FF81916F01882309F4ABC1853253
:1008B00039F493FD859193FF81916F01853229F47D
:1008C000B70190E00E942206E7CF512C312C20E0A6
:1008D0002032A0F48B3269F030F4803259F0833248
:1008E00069F420612CC08D3239F0803339F42160F5
:1008F00026C02260246023C0286021C027FD27C0B5
:1009000030ED380F3A3078F426FF06C0FAE05F9EEB
:10091000300D1124532E13C08AE0389E300D11245F
:10092000332E20620CC08E3221F426FD6BC1206470
:1009300006C08C3611F4206802C0883641F4F601F6
:1009400093FD859193FF81916F018111C1CF982F04
:100950009F7D9554933028F40C5F1F4FFFE3F9837C
:100960000DC0833631F0833771F0833509F05BC0F9
:1009700022C0F801808189830E5F1F4F4424439475
:10098000512C540115C03801F2E06F0E711CF801B2
:10099000A080B18026FF03C0652D70E002C06FEF1C
:1009A0007FEFC5012C870E9417062C0183012C853F
:1009B0002F77222E17C03801F2E06F0E711CF8015C
:1009C000A080B18026FF03C0652D70E002C06FEFEC
:1009D0007FEFC5012C870E940C062C012C85206816
:1009E000222E830123FC1BC0832D90E0481659065C
:1009F000B0F4B70180E290E00E9422063A94F4CF6E
:100A0000F50127FC859127FE81915F01B70190E0F8
:100A10000E94220631103A94F1E04F1A5108411415
:100A2000510471F7E5C0843611F0893639F5F801C3
:100A300027FF07C060817181828193810C5F1F4F06
:100A400008C060817181882777FD8095982F0E5F9F
:100A50001F4F2F76B22E97FF09C090958095709505
:100A600061957F4F8F4F9F4F2068B22E2AE030E074
:100A7000A4010E945406A82EA81844C0853729F462
:100A80002F7EB22E2AE030E025C0F22FF97FBF2E54
:100A90008F36C1F018F4883579F0B4C0803719F07A
:100AA000883721F0AFC02F2F2061B22EB4FE0DC0C9
:100AB0008B2D8460B82E09C024FF0AC09F2F96603A
:100AC000B92E06C028E030E005C020E130E002C0C9
:100AD00020E132E0F801B7FE07C0608171818281B8
:100AE00093810C5F1F4F06C06081718180E090E0B0
:100AF0000E5F1F4FA4010E945406A82EA818FB2DBC
:100B0000FF77BF2EB6FE0BC02B2D2E7FA51450F401
:100B1000B4FE0AC0B2FC08C02B2D2E7E05C07A2C74
:100B20002B2D03C07A2C01C0752C24FF0DC0FE01B3
:100B3000EA0DF11D8081803311F4297E09C022FF66
:100B400006C07394739404C0822F867809F073945E
:100B500023FD13C020FF06C05A2C731418F4530C45
:100B60005718732C731468F4B70180E290E02C8757
:100B70000E94220673942C85F5CF731410F4371855
:100B800001C0312C24FF12C0B70180E390E02C8714
:100B90000E9422062C8522FF17C021FF03C088E592
:100BA00090E002C088E790E0B7010CC0822F867801
:100BB00059F021FD02C080E201C08BE227FD8DE2E9
:100BC000B70190E00E942206A51438F4B70180E333
:100BD00090E00E9422065A94F7CFAA94F401EA0DFD
:100BE000F11D8081B70190E00E942206A110F5CF8F
:100BF000332009F451CEB70180E290E00E94220632
:100C00003A94F6CFF7018681978102C08FEF9FEF6C
:100C10002C96E2E10C94CE06FC01059061507040E8
:100C20000110D8F7809590958E0F9F1F0895FC01B5
:100C30006150704001900110D8F7809590958E0F0B
:100C40009F1F08950F931F93CF93DF93182F092FA2
:100C5000EB018B8181FD03C08FEF9FEF20C082FFEE
:100C600010C04E815F812C813D81421753077CF477
:100C7000E881F9819F012F5F3F4F398328831083DB
:100C800006C0E885F985812F0995892B29F72E81E2
:100C90003F812F5F3F4F3F832E83812F902FDF9126
:100CA000CF911F910F910895FA01AA27283051F191
:100CB000203181F1E8946F936E7F6E5F7F4F8F4F8D
:100CC0009F4FAF4FB1E03ED0B4E03CD0670F781FEC
:100CD000891F9A1FA11D680F791F8A1F911DA11DD1
:100CE0006A0F711D811D911DA11D20D009F468940A
:100CF0003F912AE0269F11243019305D3193DEF6B2
:100D0000CF010895462F4770405D4193B3E00FD067
:100D1000C9F7F6CF462F4F70405D4A3318F0495D52
:100D200031FD4052419302D0A9F7EACFB4E0A69535
:100D30009795879577956795BA95C9F70097610557
:100D4000710508959B01AC010A2E069457954795AD
:100D500037952795BA95C9F7620F731F841F951FA2
:100D6000A01D08952F923F924F925F926F927F92B3
:100D70008F929F92AF92BF92CF92DF92EF92FF92AB
:100D80000F931F93CF93DF93CDB7DEB7CA1BDB0B57
:100D90000FB6F894DEBF0FBECDBF09942A883988FC
:100DA00048885F846E847D848C849B84AA84B98403
:100DB000C884DF80EE80FD800C811B81AA81B9810F
:100DC000CE0FD11D0FB6F894DEBF0FBECDBFED0123
:100DD000089510E0C6E5D0E004C0FE010E940604BC
:0C0DE0002296C835D107C9F7F894FFCF60
:100DEC000504100302100100101010101010101048
:100DFC000807100A09100C0B10101010101010100E
:100E0C00256425643A256425643A256425640046E6
:060E1C0061696C656400D1
:00000001FF
