S00B00004932432E737265635B
S11300000C942A000C9447000C9447000C9447006D
S11300100C9447000C9447000C9447000C94470040
S11300200C9447000C9447000C9447000C94470030
S11300300C9447000C9447000C9447000C94470020
S11300400C9447000C9447000C9447000C94470010
S11300500C94470011241FBECFE5D8E0DEBFCDBF0E
S113006010E0A0E6B0E0EAE1F5E002C005900D92F0
S1130070A836B107D9F720E0A8E6B0E001C01D9288
S1130080AD38B207E1F70E9449000C948B020C943E
S113009000004F925F926F927F928F929F92AF92E5
S11300A0BF92CF92DF92EF92FF920F931F93CF9361
S11300B0DF931F92CDB7DEB760EDCE0101960E94AB
S11300C053010E943D0260E080E00E9473020E949E
S11300D06F02CE0101960E94560189E69EE6A4E7CE
S11300E0B0E080936F0090937000A0937100B09380
S11300F072008FE690E00E947C020E946F0260E032
S1130100CE0101960E945A018111A2C0CE0101962E
S11301100E949F0160E0CE0101960E947E0160E092
S1130120CE0101960E94A50160E8CE0101960E94CD
S1130130A50160E0CE0101960E94A50163E0CE0115
S113014001960E94A50160E0CE0101960E94A501DE
S113015060E0CE0101960E94A50160E0CE01019607
S11301600E94A50160E0CE0101960E94A501CE0186
S113017001960E949F010F2EF8E68F2EF0E09F2E2D
S1130180F02D0F2EF9E6AF2EF0E0BF2EF02D0F2E3E
S1130190FAE6CF2EF0E0DF2EF02D0F2EFBE6EF2E49
S11301A0F0E0FF2EF02D0CE610E00F2EFDE66F2E92
S11301B0F0E07F2EF02D0F2EFEE64F2EF0E05F2EA6
S11301C0F02D60E0CE0101960E947E0160E0CE0138
S11301D001960E94A50161E0CE0101960E947B0177
S11301E0CE0101960E94B201F4018083CE010196F2
S11301F00E94B201F5018083CE0101960E94B201F2
S1130200F6018083CE0101960E94B201F70180833A
S1130210CE0101960E94B201F8018083CE010196BD
S11302200E94B201F3018083CE0101960E94B901BC
S1130230F2018083CE0101960E949F01FFEF20E727
S113024082E0F15020408040E1F700C00000B9CFC7
S1130250CE0101960E949F0187E0E0E6F0E0AFE660
S1130260B0E001900D928A95E1F78FE690E00E944C
S11302707C020E946F02CE0101960E94C00180E0C0
S113028090E00F90DF91CF911F910F91FF90EF902D
S1130290DF90CF90BF90AF909F908F907F906F90A2
S11302A05F904F900895FC016083089511B88CE02D
S11302B080B9089524EA26BF06B607FEFDCF21B112
S11302C0287F283011F0203191F4FC018081680FDF
S11302D063B984E886BF06B607FEFDCF91B1987F67
S11302E0983139F081E0903429F480E0089581E078
S11302F0089580E008950E945A010895FC0194EA4B
S113030024E834E996BF06B607FEFDCF81B1887FA5
S1130310883011F08031B1F78081860F83B926BF10
S113032006B607FEFDCF81B1887F803211F0883593
S113033029F436BF06B604FCFDCFE4CF089584E962
S113034086BF06B604FCFDCF089563B984E886BF72
S113035006B607FEFDCF91B1987F81E0983209F48B
S113036080E0089584EC86BF06B607FEFDCF83B116
S1130370089584E886BF06B607FEFDCF83B10895CD
S113038008958150F0F7089582E00E94C101D99A3E
S113039081E00E94C101D998089581509040E8F706
S11303A00895CF938AB38E608ABB8AB38F708ABB59
S11303B08BB3846F8BBBDB9882E00E94C101D99A16
S11303C081E00E94C101C9B3D99882E00E94C101B1
S11303D0D99A81E00E94C10189B3C07F82958F7050
S11303E0D9988C2BCF9108950E94D1018823E4F3EE
S11303F00895CF93C82F0E94F4018AB38E6F8ABBED
S11304008BB381708BBB8BB39C2F907F892B8BBB61
S11304100E94C4018BB381708BBB2BB330E1C39FAB
S1130420C0011124822B8BBB0E94C401CF9108957B
S1130430CF93C82F0E94F4018AB38E6F8ABB8BB30B
S113044081708BBB8BB388609C2F907F892B8BBB77
S11304500E94C4018BB381708BBB2BB3286030E145
S1130460C39FC0011124822B8BBB0E94C401CF9176
S1130470089581E00E94F90108958AB38E6F8ABBC2
S11304808EEF95E30E94CD018BB381708BBB8BB350
S113049080638BBB0E94C40182EC9EE00E94CD016C
S11304A00E94C4018CE590E00E94CD010E94C40129
S11304B08CE590E00E94CD01DC980E94C4018CE59B
S11304C090E00E94CD0188E20E94F90186E00E943A
S11304D0F9010E9439028FE00E94F901089582E037
S11304E00E94F9010895882311F08EE001C08CE088
S11304F0860F0E94F9010895CF93DF93EC01888160
S1130500882331F021960E94180289918111FBCF32
S10D0510DF91CF910895F894FFCF16
S10B051A4661696C6564000090
S9030000FC
