:100000000C942C000C9454000C9454000C94540048
:100010000C9454000C9454000C9454000C94540010
:100020000C9454000C9454000C9454000C948801CB
:100030000C9454000C9454000C9454000C945400F0
:100040000C9454000C9454000C9454000C945400E0
:100050000C9454004B02510211241FBECFE5D8E08E
:10006000DEBFCDBF10E0A0E6B0E0E8EFFDE002C0EB
:1000700005900D92A639B107D9F720E0A6E9B0E0C6
:1000800001C01D92AD3BB207E1F710E0C6E5D0E03C
:1000900004C02297FE010E940C04C435D107C9F7A1
:1000A0000E9403020C94EF060C94000081E083BFD1
:1000B00012BE89BF0895982F92959F70990F292F8E
:1000C000220F220F920F8F70890F08959DEC899F48
:1000D000912D1124969596959695292F220F322FC2
:1000E000330F330F230F821B20E1929F800D1124C9
:1000F0000895FF920F931F93CF93DF930E94D30332
:1001000080919F001F928F938091A0001F928F93E8
:100110008091A1001F928F938091A2001F928F93D4
:100120008091A3001F928F938091A4001F928F93C0
:1001300000E810E01F930F931F920F2EF1E1FF2EA6
:10014000F02DFF92CCEAD0E0DF93CF930E94100411
:10015000CE010E94FB0360E081E00E94E0038091F9
:10016000AA001F928F938091AB001F928F93809172
:10017000A8001F928F938091A9001F928F93809166
:10018000A6001F928F938091A7001F928F931F93B9
:100190000F931F92FF92DF93CF930E9410048DB7AD
:1001A0009EB784960FB6F8949EBF0FBE8DBFCE014A
:1001B0000E94FB03DF91CF911F910F91FF90089553
:1001C000DF92EF92FF920F931F93CF93DF9361E043
:1001D00081E00E94D7030E94D303D0E0C0E011E089
:1001E00053C0819B16C0C03149F4212F2D1BD22F43
:1001F00060E0822F0E94E003C0E046C0C13011F0F1
:10020000C43009F4CF5FCF5F6C2F8D2F0E94E003C5
:100210003BC0829B1CC00E94ED03082F0E94F50387
:1002200090E1099F90011124280F311DF901E05A36
:10023000FF4FE081F0E0E156FF4F80818F5F8083C8
:100240000E9479006C2F8D2F0E94E0031DC0839BBC
:100250001BC00E94ED03082F0E94F503E0E10E9FF2
:1002600090011124280F311DF901E05AFF4FE08160
:10027000F0E0E156FF4F8081815080830E94790039
:100280006C2F8D2F0E94E003809BABCFC8E9D0E09C
:100290000FE910E00F2EFFE9EF2EF0E0FF2EF02D1A
:1002A000D12CF6E0DF1679F0ED2DF0E0E156FF4FAE
:1002B0009181808120E1929F800D11240E9466002F
:1002C0008883D39405C0F80180810E945B008883F5
:1002D000D39421960F5F1F4FCE15DF0511F760E015
:1002E00087E990E00E94810248E050E068E970E010
:1002F00087E990E00E94020387E990E00E94A20251
:10030000DF91CF911F910F91FF90EF90DF900895B3
:100310001F920F920FB60F921124DF92EF92FF926D
:100320000F931F932F933F934F935F936F937F93FD
:100330008F939F93AF93BF93CF93DF93EF93FF93ED
:10034000809196008F3009F042C060E087E990E02C
:100350000E94810220E047E068E970E087E990E0D0
:100360000E94C30287E990E00E94A202D0909B0005
:10037000EE24E39410E000E002C01F5FE39413302A
:10038000C9F0C02FD0E0E12FF0E0E856FF4FF08039
:100390008F2D8F700E945B00C156DF4F88838F2D99
:1003A00082958F700E945B0089830E5F86E08E15B8
:1003B00020F70AC08D2D0E945B00E02FF0E0E1568F
:1003C000FF4F80830F5FD9CF1092960003C08F5FDD
:1003D0008093960012BEFF91EF91DF91CF91BF9174
:1003E000AF919F918F917F916F915F914F913F91CD
:1003F0002F911F910F91FF90EF90DF900F900FBE04
:100400000F901F90189511BA0E94A10360E080E040
:100410000E94D7030E94D30389E69EE6A4E7B0E0DA
:100420008093AC009093AD00A093AE00B093AF006A
:100430008CEA90E00E94FB030E94D30387E990E0DE
:100440000E94590260E087E990E00E945D028111FC
:100450000CC00E9456007894F8940E947900789419
:10046000809BFACF0E94E000F7CF87E990E00E94DE
:10047000A20287E0EFE8F0E0ACEAB0E001900D9274
:100480008A95E1F78CEA90E00E94FB030E94D30377
:1004900080E090E0089560ED87E990E00E945602C8
:1004A000089587E990E00E9424030895FC01608389
:1004B000089511B88CE080B9089524EA26BF06B6E5
:1004C00007FEFDCF21B1287F283011F0203191F4B3
:1004D000FC018081680F63B984E886BF06B607FE19
:1004E000FDCF91B1987F983139F081E0903429F4B3
:1004F00080E0089581E0089580E008950E945D0203
:100500000895FC0194EA24E834E996BF06B607FE94
:10051000FDCF81B1887F883011F08031B1F78081C3
:10052000860F83B926BF06B607FEFDCF81B1887F4F
:10053000803211F0883529F436BF06B604FCFDCFB1
:10054000E4CF089584E986BF06B604FCFDCF089584
:1005500063B984E886BF06B607FEFDCF91B1987FE8
:1005600081E0983209F480E0089584EC86BF06B6F5
:1005700007FEFDCF83B1089584E886BF06B607FE67
:10058000FDCF83B10895AF92BF92CF92DF92EF92E9
:10059000FF920F931F93CF93DF938C016B01A42ED7
:1005A000622F0E94A80261E0C8010E947E02EA2C2C
:1005B000F12C81E0E81AF1081E141F0474F4B12C28
:1005C000E601CB0DD11DC8010E94B5028883B3940A
:1005D0002B2D30E02E153F059CF38A2D90E00197DE
:1005E000E601C80FD91FC8010E94BC028883DF91B1
:1005F000CF911F910F91FF90EF90DF90CF90BF9020
:10060000AF900895DF92EF92FF920F931F93CF93D5
:10061000DF937C018B01EA0120E030E0D12CF8016E
:10062000E20FF31F6081C7010E94A802D3942D2D11
:1006300030E0C217D30798F7DF91CF911F910F9148
:10064000FF90EF90DF90089508958150F0F708959E
:1006500082E00E942503D99A81E00E942503D9985F
:10066000089581509040E8F70895CF938AB38E6043
:100670008ABB8AB38F708ABB8BB3846F8BBBDB98CA
:1006800082E00E942503D99A81E00E942503C9B324
:10069000D99882E00E942503D99A81E00E9425031F
:1006A00089B3C07F82958F70D9988C2BCF91089594
:1006B0000E9435038823E4F30895CF93C82F0E9446
:1006C00058038AB38E6F8ABB8BB381708BBB8BB39D
:1006D0009C2F907F892B8BBB0E9428038BB381704A
:1006E0008BBB2BB330E1C39FC0011124822B8BBB8A
:1006F0000E942803CF910895CF93C82F0E945803DA
:100700008AB38E6F8ABB8BB381708BBB8BB38860CF
:100710009C2F907F892B8BBB0E9428038BB3817009
:100720008BBB2BB3286030E1C39FC0011124822B07
:100730008BBB0E942803CF91089581E00E945D0346
:1007400008958AB38E6F8ABB8EEF95E30E943103C2
:100750008BB381708BBB8BB380638BBB0E942803F0
:1007600082EC9EE00E9431030E9428038CE590E019
:100770000E9431030E9428038CE590E00E9431031F
:10078000DC980E9428038CE590E00E94310388E207
:100790000E945D0386E00E945D030E949D038FE03E
:1007A0000E945D03089582E00E945D0308958823FE
:1007B00011F08EE001C08CE0860F0E945D03089569
:1007C000823050F4603140F490E4899F600D112430
:1007D000862F80580E945D0308950E9458030E944E
:1007E000350386FB882780F908950E9458030E94EC
:1007F00035038F730895CF93DF93EC0188818823AD
:1008000031F021960E947C0389918111FBCFDF9109
:10081000CF910895EE0FFF1F0590F491E02D0994FC
:10082000AEE0B0E0E6E1F4E00C94C6060D891E8966
:100830008F89988D26E02C831A83098397FF02C045
:1008400080E090E801979E838D83AE01455E5F4F07
:10085000698D7A8DCE0101960E9440044D815E81A2
:1008600057FD0AC02F813885421753070CF49A01AF
:10087000F801E20FF31F10822E96E4E00C94E206DA
:10088000ACE0B0E0E6E4F4E00C94B8067C016B0167
:100890008A01FC0117821682838181FFBDC1CE01CE
:1008A00001964C01F7019381F60193FD859193FF29
:1008B00081916F01882309F4ABC1853239F493FD2E
:1008C000859193FF81916F01853229F4B70190E002
:1008D0000E942806E7CF512C312C20E02032A0F4D2
:1008E0008B3269F030F4803259F0833269F4206140
:1008F0002CC08D3239F0803339F4216026C022605B
:10090000246023C0286021C027FD27C030ED380FA8
:100910003A3078F426FF06C0FAE05F9E300D1124CD
:10092000532E13C08AE0389E300D1124332E2062DE
:100930000CC08E3221F426FD6BC1206406C08C36BB
:1009400011F4206802C0883641F4F60193FD8591C8
:1009500093FF81916F018111C1CF982F9F7D955495
:10096000933028F40C5F1F4FFFE3F9830DC08336EB
:1009700031F0833771F0833509F05BC022C0F80194
:10098000808189830E5F1F4F44244394512C54016E
:1009900015C03801F2E06F0E711CF801A080B18023
:1009A00026FF03C0652D70E002C06FEF7FEFC50129
:1009B0002C870E941D062C0183012C852F77222E67
:1009C00017C03801F2E06F0E711CF801A080B180F1
:1009D00026FF03C0652D70E002C06FEF7FEFC501F9
:1009E0002C870E9412062C012C852068222E830160
:1009F00023FC1BC0832D90E048165906B0F4B701C4
:100A000080E290E00E9428063A94F4CFF50127FC9A
:100A1000859127FE81915F01B70190E00E94280631
:100A200031103A94F1E04F1A51084114510471F712
:100A3000E5C0843611F0893639F5F80127FF07C083
:100A400060817181828193810C5F1F4F08C060813A
:100A50007181882777FD8095982F0E5F1F4F2F7625
:100A6000B22E97FF09C090958095709561957F4F44
:100A70008F4F9F4F2068B22E2AE030E0A4010E94E1
:100A80005A06A82EA81844C0853729F42F7EB22E06
:100A90002AE030E025C0F22FF97FBF2E8F36C1F05B
:100AA00018F4883579F0B4C0803719F0883721F010
:100AB000AFC02F2F2061B22EB4FE0DC08B2D8460ED
:100AC000B82E09C024FF0AC09F2F9660B92E06C019
:100AD00028E030E005C020E130E002C020E132E053
:100AE000F801B7FE07C060817181828193810C5F3C
:100AF0001F4F06C06081718180E090E00E5F1F4F44
:100B0000A4010E945A06A82EA818FB2DFF77BF2E1D
:100B1000B6FE0BC02B2D2E7FA51450F4B4FE0AC0D8
:100B2000B2FC08C02B2D2E7E05C07A2C2B2D03C0C5
:100B30007A2C01C0752C24FF0DC0FE01EA0DF11DB9
:100B40008081803311F4297E09C022FF06C073948E
:100B5000739404C0822F867809F0739423FD13C028
:100B600020FF06C05A2C731418F4530C5718732C1A
:100B7000731468F4B70180E290E02C870E94280685
:100B800073942C85F5CF731410F4371801C0312CF1
:100B900024FF12C0B70180E390E02C870E94280652
:100BA0002C8522FF17C021FF03C088E590E002C01A
:100BB00088E790E0B7010CC0822F867859F021FDBC
:100BC00002C080E201C08BE227FD8DE2B70190E018
:100BD0000E942806A51438F4B70180E390E00E9433
:100BE00028065A94F7CFAA94F401EA0DF11D8081EA
:100BF000B70190E00E942806A110F5CF332009F438
:100C000051CEB70180E290E00E9428063A94F6CFD8
:100C1000F7018681978102C08FEF9FEF2C96E2E16A
:100C20000C94D406FC010590615070400110D8F777
:100C3000809590958E0F9F1F0895FC016150704024
:100C400001900110D8F7809590958E0F9F1F089501
:100C50000F931F93CF93DF93182F092FEB018B81F5
:100C600081FD03C08FEF9FEF20C082FF10C04E8137
:100C70005F812C813D81421753077CF4E881F98123
:100C80009F012F5F3F4F39832883108306C0E8857B
:100C9000F985812F0995892B29F72E813F812F5FB7
:100CA0003F4F3F832E83812F902FDF91CF911F9154
:100CB0000F910895FA01AA27283051F1203181F1CE
:100CC000E8946F936E7F6E5F7F4F8F4F9F4FAF4F54
:100CD000B1E03ED0B4E03CD0670F781F891F9A1F67
:100CE000A11D680F791F8A1F911DA11D6A0F711D1B
:100CF000811D911DA11D20D009F468943F912AE027
:100D0000269F11243019305D3193DEF6CF0108950E
:100D1000462F4770405D4193B3E00FD0C9F7F6CF3F
:100D2000462F4F70405D4A3318F0495D31FD405207
:100D3000419302D0A9F7EACFB4E0A695979587959D
:100D400077956795BA95C9F700976105710508957C
:100D50009B01AC010A2E0694579547953795279528
:100D6000BA95C9F7620F731F841F951FA01D0895C0
:100D70002F923F924F925F926F927F928F929F92AB
:100D8000AF92BF92CF92DF92EF92FF920F931F9399
:100D9000CF93DF93CDB7DEB7CA1BDB0B0FB6F8944A
:100DA000DEBF0FBECDBF09942A88398848885F848A
:100DB0006E847D848C849B84AA84B984C884DF80FB
:100DC000EE80FD800C811B81AA81B981CE0FD11DDF
:100DD0000FB6F894DEBF0FBECDBFED01089510E051
:100DE000C6E5D0E004C0FE010E940C042296C8357E
:080DF000D107C9F7F894FFCF09
:100DF800050410030210010010101010101010103C
:100E08000807100A09100C0B101010101010101001
:100E1800256425643A256425643A256425640046DA
:060E280061696C656400C5
:00000001FF
